{"contracts/CoffeeShop.sol":{"CoffeeShop":{"abi":[{"inputs":[{"internalType":"address","name":"_storeWallet","type":"address"},{"internalType":"address","name":"_usdt","type":"address"}],"stateMutability":"nonpayable","type":"constructor"},{"anonymous":false,"inputs":[{"indexed":true,"internalType":"uint256","name":"itemId","type":"uint256"},{"indexed":false,"internalType":"string","name":"name","type":"string"},{"indexed":false,"internalType":"uint256","name":"price","type":"uint256"},{"indexed":false,"internalType":"bool","name":"active","type":"bool"}],"name":"ItemCreated","type":"event"},{"anonymous":false,"inputs":[{"indexed":true,"internalType":"uint256","name":"itemId","type":"uint256"},{"indexed":false,"internalType":"string","name":"name","type":"string"},{"indexed":false,"internalType":"uint256","name":"oldPrice","type":"uint256"},{"indexed":false,"internalType":"uint256","name":"newPrice","type":"uint256"},{"indexed":false,"internalType":"bool","name":"active","type":"bool"}],"name":"ItemUpdated","type":"event"},{"anonymous":false,"inputs":[{"indexed":true,"internalType":"uint256","name":"orderId","type":"uint256"},{"indexed":true,"internalType":"address","name":"customer","type":"address"},{"indexed":true,"internalType":"uint256","name":"itemId","type":"uint256"},{"indexed":false,"internalType":"uint256","name":"qty","type":"uint256"},{"indexed":false,"internalType":"uint256","name":"total","type":"uint256"}],"name":"OrderPlaced","type":"event"},{"anonymous":false,"inputs":[{"indexed":false,"internalType":"bool","name":"paused","type":"bool"}],"name":"SalesPaused","type":"event"},{"anonymous":false,"inputs":[{"indexed":true,"internalType":"address","name":"oldWallet","type":"address"},{"indexed":true,"internalType":"address","name":"newWallet","type":"address"}],"name":"StoreWalletUpdated","type":"event"},{"inputs":[{"internalType":"uint256","name":"itemId","type":"uint256"},{"internalType":"uint256","name":"qty","type":"uint256"}],"name":"buy","outputs":[],"stateMutability":"nonpayable","type":"function"},{"inputs":[{"internalType":"string","name":"name","type":"string"},{"internalType":"uint256","name":"price","type":"uint256"},{"internalType":"bool","name":"active","type":"bool"}],"name":"createItem","outputs":[{"internalType":"uint256","name":"itemId","type":"uint256"}],"stateMutability":"nonpayable","type":"function"},{"inputs":[{"internalType":"uint256","name":"itemId","type":"uint256"}],"name":"getItem","outputs":[{"internalType":"string","name":"name","type":"string"},{"internalType":"uint256","name":"price","type":"uint256"},{"internalType":"bool","name":"active","type":"bool"},{"internalType":"bool","name":"exists","type":"bool"}],"stateMutability":"view","type":"function"},{"inputs":[],"name":"getMenuSize","outputs":[{"internalType":"uint256","name":"","type":"uint256"}],"stateMutability":"view","type":"function"},{"inputs":[],"name":"nextItemId","outputs":[{"internalType":"uint256","name":"","type":"uint256"}],"stateMutability":"view","type":"function"},{"inputs":[],"name":"nextOrderId","outputs":[{"internalType":"uint256","name":"","type":"uint256"}],"stateMutability":"view","type":"function"},{"inputs":[],"name":"owner","outputs":[{"internalType":"address","name":"","type":"address"}],"stateMutability":"view","type":"function"},{"inputs":[],"name":"paused","outputs":[{"internalType":"bool","name":"","type":"bool"}],"stateMutability":"view","type":"function"},{"inputs":[{"internalType":"uint256","name":"","type":"uint256"}],"name":"priceOf","outputs":[{"internalType":"uint256","name":"","type":"uint256"}],"stateMutability":"view","type":"function"},{"inputs":[{"internalType":"bool","name":"value","type":"bool"}],"name":"setPaused","outputs":[],"stateMutability":"nonpayable","type":"function"},{"inputs":[{"internalType":"uint256","name":"itemId","type":"uint256"},{"internalType":"uint256","name":"newPrice","type":"uint256"}],"name":"setPrice","outputs":[],"stateMutability":"nonpayable","type":"function"},{"inputs":[{"internalType":"address","name":"newWallet","type":"address"}],"name":"setStoreWallet","outputs":[],"stateMutability":"nonpayable","type":"function"},{"inputs":[],"name":"storeWallet","outputs":[{"internalType":"address","name":"","type":"address"}],"stateMutability":"view","type":"function"},{"inputs":[{"internalType":"uint256","name":"itemId","type":"uint256"},{"internalType":"string","name":"name","type":"string"},{"internalType":"uint256","name":"newPrice","type":"uint256"},{"internalType":"bool","name":"active","type":"bool"}],"name":"updateItem","outputs":[],"stateMutability":"nonpayable","type":"function"},{"inputs":[],"name":"usdt","outputs":[{"internalType":"contract IERC20","name":"","type":"address"}],"stateMutability":"view","type":"function"}],"evm":{"bytecode":{"linkReferences":{},"object":"6080604052600160035560016005553480156200001b57600080fd5b5060405162002aa738038062002aa7833981810160405281019062000041919062000259565b600073ffffffffffffffffffffffffffffffffffffffff168273ffffffffffffffffffffffffffffffffffffffff1603620000b3576040517f08c379a0000000000000000000000000000000000000000000000000000000008152600401620000aa9062000301565b60405180910390fd5b600073ffffffffffffffffffffffffffffffffffffffff168173ffffffffffffffffffffffffffffffffffffffff160362000125576040517f08c379a00000000000000000000000000000000000000000000000000000000081526004016200011c9062000373565b60405180910390fd5b816000806101000a81548173ffffffffffffffffffffffffffffffffffffffff021916908373ffffffffffffffffffffffffffffffffffffffff16021790555033600160006101000a81548173ffffffffffffffffffffffffffffffffffffffff021916908373ffffffffffffffffffffffffffffffffffffffff16021790555080600260006101000a81548173ffffffffffffffffffffffffffffffffffffffff021916908373ffffffffffffffffffffffffffffffffffffffff160217905550505062000395565b600080fd5b600073ffffffffffffffffffffffffffffffffffffffff82169050919050565b60006200022182620001f4565b9050919050565b620002338162000214565b81146200023f57600080fd5b50565b600081519050620002538162000228565b92915050565b60008060408385031215620002735762000272620001ef565b5b6000620002838582860162000242565b9250506020620002968582860162000242565b9150509250929050565b600082825260208201905092915050565b7f7a65726f2073746f72652077616c6c6574000000000000000000000000000000600082015250565b6000620002e9601183620002a0565b9150620002f682620002b1565b602082019050919050565b600060208201905081810360008301526200031c81620002da565b9050919050565b7f7a65726f20746f6b656e00000000000000000000000000000000000000000000600082015250565b60006200035b600a83620002a0565b9150620003688262000323565b602082019050919050565b600060208201905081810360008301526200038e816200034c565b9050919050565b61270280620003a56000396000f3fe608060405234801561001057600080fd5b50600436106100f55760003560e01c80638da5cb5b11610097578063c550424c11610066578063c550424c14610279578063d6febde814610297578063d7073225146102b3578063f7d97577146102cf576100f5565b80638da5cb5b146101df578063a07b281e146101fd578063b72753d51461022d578063b9186d7d14610249576100f5565b80633129e773116100d35780633129e773146101525780635c975abb146101855780635f9810b8146101a35780636a868974146101c1576100f5565b806316c38b3c146100fa5780632a58b330146101165780632f48ab7d14610134575b600080fd5b610114600480360381019061010f919061145f565b6102eb565b005b61011e6103cf565b60405161012b91906114a5565b60405180910390f35b61013c6103d5565b604051610149919061153f565b60405180910390f35b61016c60048036038101906101679190611586565b6103fb565b60405161017c9493929190611652565b60405180910390f35b61018d6104e1565b60405161019a919061169e565b60405180910390f35b6101ab6104f4565b6040516101b891906114a5565b60405180910390f35b6101c961050a565b6040516101d691906114a5565b60405180910390f35b6101e7610510565b6040516101f491906116da565b60405180910390f35b6102176004803603810190610212919061175a565b610536565b60405161022491906114a5565b60405180910390f35b610247600480360381019061024291906117ce565b6107a8565b005b610263600480360381019061025e9190611586565b6109cc565b60405161027091906114a5565b60405180910390f35b6102816109e4565b60405161028e91906116da565b60405180910390f35b6102b160048036038101906102ac9190611856565b610a08565b005b6102cd60048036038101906102c891906118c2565b610ef0565b005b6102e960048036038101906102e49190611856565b6110b3565b005b600160009054906101000a900473ffffffffffffffffffffffffffffffffffffffff1673ffffffffffffffffffffffffffffffffffffffff163373ffffffffffffffffffffffffffffffffffffffff161461037b576040517f08c379a00000000000000000000000000000000000000000000000000000000081526004016103729061193b565b60405180910390fd5b80600460006101000a81548160ff0219169083151502179055507f946daf4cb810fc46854501a3633cf3a64f661faa78a8da7a74d30bb563c14372816040516103c4919061169e565b60405180910390a150565b60035481565b600260009054906101000a900473ffffffffffffffffffffffffffffffffffffffff1681565b60606000806000806006600087815260200190815260200160002090508060000181600101548260020160009054906101000a900460ff168360020160019054906101000a900460ff168380546104519061198a565b80601f016020809104026020016040519081016040528092919081815260200182805461047d9061198a565b80156104ca5780601f1061049f576101008083540402835291602001916104ca565b820191906000526020600020905b8154815290600101906020018083116104ad57829003601f168201915b505050505093509450945094509450509193509193565b600460009054906101000a900460ff1681565b6000600160055461050591906119ea565b905090565b60055481565b600160009054906101000a900473ffffffffffffffffffffffffffffffffffffffff1681565b6000600160009054906101000a900473ffffffffffffffffffffffffffffffffffffffff1673ffffffffffffffffffffffffffffffffffffffff163373ffffffffffffffffffffffffffffffffffffffff16146105c8576040517f08c379a00000000000000000000000000000000000000000000000000000000081526004016105bf9061193b565b60405180910390fd5b6000858590501161060e576040517f08c379a000000000000000000000000000000000000000000000000000000000815260040161060590611a6a565b60405180910390fd5b60008311610651576040517f08c379a000000000000000000000000000000000000000000000000000000000815260040161064890611ad6565b60405180910390fd5b6005600081548092919061066490611af6565b919050559050604051806080016040528086868080601f016020809104026020016040519081016040528093929190818152602001838380828437600081840152601f19601f8201169050808301925050505050505081526020018481526020018315158152602001600115158152506006600083815260200190815260200160002060008201518160000190816106fc9190611d0f565b506020820151816001015560408201518160020160006101000a81548160ff02191690831515021790555060608201518160020160016101000a81548160ff021916908315150217905550905050826007600083815260200190815260200160002081905550807fa6479ba1d8ffb5e464a6e5df2b50fa0eb731ca01289d353a075aeb47a78925b0868686866040516107989493929190611e1d565b60405180910390a2949350505050565b600160009054906101000a900473ffffffffffffffffffffffffffffffffffffffff1673ffffffffffffffffffffffffffffffffffffffff163373ffffffffffffffffffffffffffffffffffffffff1614610838576040517f08c379a000000000000000000000000000000000000000000000000000000000815260040161082f9061193b565b60405180910390fd5b60006006600087815260200190815260200160002090508060020160019054906101000a900460ff166108a0576040517f08c379a000000000000000000000000000000000000000000000000000000000815260040161089790611ea9565b60405180910390fd5b600085859050116108e6576040517f08c379a00000000000000000000000000000000000000000000000000000000081526004016108dd90611a6a565b60405180910390fd5b60008311610929576040517f08c379a000000000000000000000000000000000000000000000000000000000815260040161092090611ad6565b60405180910390fd5b6000816001015490508585836000019182610945929190611ed4565b50838260010181905550828260020160006101000a81548160ff021916908315150217905550836007600089815260200190815260200160002081905550867fc122feb53e80db09fbf3557b844bd93ca6a93c19c7b7e31e92714b33f875ed1387878488886040516109bb959493929190611fa4565b60405180910390a250505050505050565b60076020528060005260406000206000915090505481565b60008054906101000a900473ffffffffffffffffffffffffffffffffffffffff1681565b600460009054906101000a900460ff1615610a58576040517f08c379a0000000000000000000000000000000000000000000000000000000008152600401610a4f9061203e565b60405180910390fd5b60008111610a9b576040517f08c379a0000000000000000000000000000000000000000000000000000000008152600401610a92906120aa565b60405180910390fd5b60006006600084815260200190815260200160002090508060020160019054906101000a900460ff16610b03576040517f08c379a0000000000000000000000000000000000000000000000000000000008152600401610afa90611ea9565b60405180910390fd5b8060020160009054906101000a900460ff16610b54576040517f08c379a0000000000000000000000000000000000000000000000000000000008152600401610b4b90612116565b60405180910390fd5b60008160010154905060008111610ba0576040517f08c379a0000000000000000000000000000000000000000000000000000000008152600401610b9790612116565b60405180910390fd5b60008382610bae9190612136565b9050600033905081600260009054906101000a900473ffffffffffffffffffffffffffffffffffffffff1673ffffffffffffffffffffffffffffffffffffffff166370a08231836040518263ffffffff1660e01b8152600401610c1191906116da565b602060405180830381865afa158015610c2e573d6000803e3d6000fd5b505050506040513d601f19601f82011682018060405250810190610c52919061218d565b1015610c93576040517f08c379a0000000000000000000000000000000000000000000000000000000008152600401610c8a90612206565b60405180910390fd5b81600260009054906101000a900473ffffffffffffffffffffffffffffffffffffffff1673ffffffffffffffffffffffffffffffffffffffff1663dd62ed3e83306040518363ffffffff1660e01b8152600401610cf1929190612226565b602060405180830381865afa158015610d0e573d6000803e3d6000fd5b505050506040513d601f19601f82011682018060405250810190610d32919061218d565b1015610d73576040517f08c379a0000000000000000000000000000000000000000000000000000000008152600401610d6a9061229b565b60405180910390fd5b6000600260009054906101000a900473ffffffffffffffffffffffffffffffffffffffff1673ffffffffffffffffffffffffffffffffffffffff166323b872dd8360008054906101000a900473ffffffffffffffffffffffffffffffffffffffff16866040518463ffffffff1660e01b8152600401610df4939291906122bb565b6020604051808303816000875af1158015610e13573d6000803e3d6000fd5b505050506040513d601f19601f82011682018060405250810190610e379190612307565b905080610e79576040517f08c379a0000000000000000000000000000000000000000000000000000000008152600401610e7090612380565b60405180910390fd5b600060036000815480929190610e8e90611af6565b919050559050878373ffffffffffffffffffffffffffffffffffffffff16827f73d269ae9c85bfa23c18c756ce946fee3d4bd61627467b157781630dfd5795e08a88604051610ede9291906123a0565b60405180910390a45050505050505050565b600160009054906101000a900473ffffffffffffffffffffffffffffffffffffffff1673ffffffffffffffffffffffffffffffffffffffff163373ffffffffffffffffffffffffffffffffffffffff1614610f80576040517f08c379a0000000000000000000000000000000000000000000000000000000008152600401610f779061193b565b60405180910390fd5b600073ffffffffffffffffffffffffffffffffffffffff168173ffffffffffffffffffffffffffffffffffffffff1603610fef576040517f08c379a0000000000000000000000000000000000000000000000000000000008152600401610fe690612415565b60405180910390fd5b60008060009054906101000a900473ffffffffffffffffffffffffffffffffffffffff169050816000806101000a81548173ffffffffffffffffffffffffffffffffffffffff021916908373ffffffffffffffffffffffffffffffffffffffff1602179055508173ffffffffffffffffffffffffffffffffffffffff168173ffffffffffffffffffffffffffffffffffffffff167f65675fad7ef99774b8795a090ec2d045de96d07c01486166f95c1dfd3bb5166860405160405180910390a35050565b600160009054906101000a900473ffffffffffffffffffffffffffffffffffffffff1673ffffffffffffffffffffffffffffffffffffffff163373ffffffffffffffffffffffffffffffffffffffff1614611143576040517f08c379a000000000000000000000000000000000000000000000000000000000815260040161113a9061193b565b60405180910390fd5b60008111611186576040517f08c379a000000000000000000000000000000000000000000000000000000000815260040161117d90611ad6565b60405180910390fd5b60006007600084815260200190815260200160002054905081600760008581526020019081526020016000208190555060006006600085815260200190815260200160002090508060020160019054906101000a900460ff166112575760018160020160016101000a81548160ff02191690831515021790555060018160020160006101000a81548160ff021916908315150217905550611226846112b8565b60405160200161123691906124bd565b6040516020818303038152906040528160000190816112559190611d0f565b505b828160010181905550837fc122feb53e80db09fbf3557b844bd93ca6a93c19c7b7e31e92714b33f875ed138260000184868560020160009054906101000a900460ff166040516112aa9493929190612563565b60405180910390a250505050565b6060600082036112ff576040518060400160405280600181526020017f30000000000000000000000000000000000000000000000000000000000000008152509050611418565b600082905060005b6000821461133157808061131a90611af6565b915050600a8261132a91906125de565b9150611307565b60008167ffffffffffffffff81111561134d5761134c611b3e565b5b6040519080825280601f01601f19166020018201604052801561137f5781602001600182028036833780820191505090505b50905060008290505b6000861461141057808061139b9061260f565b915050600a866113ab9190612638565b60306113b79190612669565b60f81b8282815181106113cd576113cc61269d565b5b60200101907effffffffffffffffffffffffffffffffffffffffffffffffffffffffffffff1916908160001a905350600a8661140991906125de565b9550611388565b819450505050505b919050565b600080fd5b600080fd5b60008115159050919050565b61143c81611427565b811461144757600080fd5b50565b60008135905061145981611433565b92915050565b6000602082840312156114755761147461141d565b5b60006114838482850161144a565b91505092915050565b6000819050919050565b61149f8161148c565b82525050565b60006020820190506114ba6000830184611496565b92915050565b600073ffffffffffffffffffffffffffffffffffffffff82169050919050565b6000819050919050565b60006115056115006114fb846114c0565b6114e0565b6114c0565b9050919050565b6000611517826114ea565b9050919050565b60006115298261150c565b9050919050565b6115398161151e565b82525050565b60006020820190506115546000830184611530565b92915050565b6115638161148c565b811461156e57600080fd5b50565b6000813590506115808161155a565b92915050565b60006020828403121561159c5761159b61141d565b5b60006115aa84828501611571565b91505092915050565b600081519050919050565b600082825260208201905092915050565b60005b838110156115ed5780820151818401526020810190506115d2565b60008484015250505050565b6000601f19601f8301169050919050565b6000611615826115b3565b61161f81856115be565b935061162f8185602086016115cf565b611638816115f9565b840191505092915050565b61164c81611427565b82525050565b6000608082019050818103600083015261166c818761160a565b905061167b6020830186611496565b6116886040830185611643565b6116956060830184611643565b95945050505050565b60006020820190506116b36000830184611643565b92915050565b60006116c4826114c0565b9050919050565b6116d4816116b9565b82525050565b60006020820190506116ef60008301846116cb565b92915050565b600080fd5b600080fd5b600080fd5b60008083601f84011261171a576117196116f5565b5b8235905067ffffffffffffffff811115611737576117366116fa565b5b602083019150836001820283011115611753576117526116ff565b5b9250929050565b600080600080606085870312156117745761177361141d565b5b600085013567ffffffffffffffff81111561179257611791611422565b5b61179e87828801611704565b945094505060206117b187828801611571565b92505060406117c28782880161144a565b91505092959194509250565b6000806000806000608086880312156117ea576117e961141d565b5b60006117f888828901611571565b955050602086013567ffffffffffffffff81111561181957611818611422565b5b61182588828901611704565b9450945050604061183888828901611571565b92505060606118498882890161144a565b9150509295509295909350565b6000806040838503121561186d5761186c61141d565b5b600061187b85828601611571565b925050602061188c85828601611571565b9150509250929050565b61189f816116b9565b81146118aa57600080fd5b50565b6000813590506118bc81611896565b92915050565b6000602082840312156118d8576118d761141d565b5b60006118e6848285016118ad565b91505092915050565b7f6e6f74206f776e65720000000000000000000000000000000000000000000000600082015250565b60006119256009836115be565b9150611930826118ef565b602082019050919050565b6000602082019050818103600083015261195481611918565b9050919050565b7f4e487b7100000000000000000000000000000000000000000000000000000000600052602260045260246000fd5b600060028204905060018216806119a257607f821691505b6020821081036119b5576119b461195b565b5b50919050565b7f4e487b7100000000000000000000000000000000000000000000000000000000600052601160045260246000fd5b60006119f58261148c565b9150611a008361148c565b9250828203905081811115611a1857611a176119bb565b5b92915050565b7f6e616d6520656d70747900000000000000000000000000000000000000000000600082015250565b6000611a54600a836115be565b9150611a5f82611a1e565b602082019050919050565b60006020820190508181036000830152611a8381611a47565b9050919050565b7f7072696365206d757374206265203e2030000000000000000000000000000000600082015250565b6000611ac06011836115be565b9150611acb82611a8a565b602082019050919050565b60006020820190508181036000830152611aef81611ab3565b9050919050565b6000611b018261148c565b91507fffffffffffffffffffffffffffffffffffffffffffffffffffffffffffffffff8203611b3357611b326119bb565b5b600182019050919050565b7f4e487b7100000000000000000000000000000000000000000000000000000000600052604160045260246000fd5b60008190508160005260206000209050919050565b60006020601f8301049050919050565b600082821b905092915050565b600060088302611bcf7fffffffffffffffffffffffffffffffffffffffffffffffffffffffffffffffff82611b92565b611bd98683611b92565b95508019841693508086168417925050509392505050565b6000611c0c611c07611c028461148c565b6114e0565b61148c565b9050919050565b6000819050919050565b611c2683611bf1565b611c3a611c3282611c13565b848454611b9f565b825550505050565b600090565b611c4f611c42565b611c5a818484611c1d565b505050565b5b81811015611c7e57611c73600082611c47565b600181019050611c60565b5050565b601f821115611cc357611c9481611b6d565b611c9d84611b82565b81016020851015611cac578190505b611cc0611cb885611b82565b830182611c5f565b50505b505050565b600082821c905092915050565b6000611ce660001984600802611cc8565b1980831691505092915050565b6000611cff8383611cd5565b9150826002028217905092915050565b611d18826115b3565b67ffffffffffffffff811115611d3157611d30611b3e565b5b611d3b825461198a565b611d46828285611c82565b600060209050601f831160018114611d795760008415611d67578287015190505b611d718582611cf3565b865550611dd9565b601f198416611d8786611b6d565b60005b82811015611daf57848901518255600182019150602085019450602081019050611d8a565b86831015611dcc5784890151611dc8601f891682611cd5565b8355505b6001600288020188555050505b505050505050565b82818337600083830152505050565b6000611dfc83856115be565b9350611e09838584611de1565b611e12836115f9565b840190509392505050565b60006060820190508181036000830152611e38818688611df0565b9050611e476020830185611496565b611e546040830184611643565b95945050505050565b7f6974656d206e6f7420666f756e64000000000000000000000000000000000000600082015250565b6000611e93600e836115be565b9150611e9e82611e5d565b602082019050919050565b60006020820190508181036000830152611ec281611e86565b9050919050565b600082905092915050565b611ede8383611ec9565b67ffffffffffffffff811115611ef757611ef6611b3e565b5b611f01825461198a565b611f0c828285611c82565b6000601f831160018114611f3b5760008415611f29578287013590505b611f338582611cf3565b865550611f9b565b601f198416611f4986611b6d565b60005b82811015611f7157848901358255600182019150602085019450602081019050611f4c565b86831015611f8e5784890135611f8a601f891682611cd5565b8355505b6001600288020188555050505b50505050505050565b60006080820190508181036000830152611fbf818789611df0565b9050611fce6020830186611496565b611fdb6040830185611496565b611fe86060830184611643565b9695505050505050565b7f73616c6573207061757365640000000000000000000000000000000000000000600082015250565b6000612028600c836115be565b915061203382611ff2565b602082019050919050565b600060208201905081810360008301526120578161201b565b9050919050565b7f717479206d757374206265203e20300000000000000000000000000000000000600082015250565b6000612094600f836115be565b915061209f8261205e565b602082019050919050565b600060208201905081810360008301526120c381612087565b9050919050565b7f6974656d206e6f7420666f722073616c65000000000000000000000000000000600082015250565b60006121006011836115be565b915061210b826120ca565b602082019050919050565b6000602082019050818103600083015261212f816120f3565b9050919050565b60006121418261148c565b915061214c8361148c565b925082820261215a8161148c565b91508282048414831517612171576121706119bb565b5b5092915050565b6000815190506121878161155a565b92915050565b6000602082840312156121a3576121a261141d565b5b60006121b184828501612178565b91505092915050565b7f6e6f7420656e6f75676820555344540000000000000000000000000000000000600082015250565b60006121f0600f836115be565b91506121fb826121ba565b602082019050919050565b6000602082019050818103600083015261221f816121e3565b9050919050565b600060408201905061223b60008301856116cb565b61224860208301846116cb565b9392505050565b7f616c6c6f77616e636520746f6f206c6f77000000000000000000000000000000600082015250565b60006122856011836115be565b91506122908261224f565b602082019050919050565b600060208201905081810360008301526122b481612278565b9050919050565b60006060820190506122d060008301866116cb565b6122dd60208301856116cb565b6122ea6040830184611496565b949350505050565b60008151905061230181611433565b92915050565b60006020828403121561231d5761231c61141d565b5b600061232b848285016122f2565b91505092915050565b7f7472616e73666572206661696c65640000000000000000000000000000000000600082015250565b600061236a600f836115be565b915061237582612334565b602082019050919050565b600060208201905081810360008301526123998161235d565b9050919050565b60006040820190506123b56000830185611496565b6123c26020830184611496565b9392505050565b7f7a65726f2073746f72652077616c6c6574000000000000000000000000000000600082015250565b60006123ff6011836115be565b915061240a826123c9565b602082019050919050565b6000602082019050818103600083015261242e816123f2565b9050919050565b600081905092915050565b7f4974656d20230000000000000000000000000000000000000000000000000000600082015250565b6000612476600683612435565b915061248182612440565b600682019050919050565b6000612497826115b3565b6124a18185612435565b93506124b18185602086016115cf565b80840191505092915050565b60006124c882612469565b91506124d4828461248c565b915081905092915050565b600081546124ec8161198a565b6124f681866115be565b9450600182166000811461251157600181146125275761255a565b60ff19831686528115156020028601935061255a565b61253085611b6d565b60005b8381101561255257815481890152600182019150602081019050612533565b808801955050505b50505092915050565b6000608082019050818103600083015261257d81876124df565b905061258c6020830186611496565b6125996040830185611496565b6125a66060830184611643565b95945050505050565b7f4e487b7100000000000000000000000000000000000000000000000000000000600052601260045260246000fd5b60006125e98261148c565b91506125f48361148c565b925082612604576126036125af565b5b828204905092915050565b600061261a8261148c565b91506000820361262d5761262c6119bb565b5b600182039050919050565b60006126438261148c565b915061264e8361148c565b92508261265e5761265d6125af565b5b828206905092915050565b60006126748261148c565b915061267f8361148c565b9250828201905080821115612697576126966119bb565b5b92915050565b7f4e487b7100000000000000000000000000000000000000000000000000000000600052603260045260246000fdfea26469706673582212204c67a3739ea50586f4cb88ca6cf1a4daf6b542f19c0abeccb73715b468bbe37764736f6c63430008140033","opcodes":"PUSH1 0x80 PUSH1 0x40 MSTORE PUSH1 0x1 PUSH1 0x3 SSTORE PUSH1 0x1 PUSH1 0x5 SSTORE CALLVALUE DUP1 ISZERO PUSH3 0x1B JUMPI PUSH1 0x0 DUP1 REVERT JUMPDEST POP PUSH1 0x40 MLOAD PUSH3 0x2AA7 CODESIZE SUB DUP1 PUSH3 0x2AA7 DUP4 CODECOPY DUP2 DUP2 ADD PUSH1 0x40 MSTORE DUP2 ADD SWAP1 PUSH3 0x41 SWAP2 SWAP1 PUSH3 0x259 JUMP JUMPDEST PUSH1 0x0 PUSH20 0xFFFFFFFFFFFFFFFFFFFFFFFFFFFFFFFFFFFFFFFF AND DUP3 PUSH20 0xFFFFFFFFFFFFFFFFFFFFFFFFFFFFFFFFFFFFFFFF AND SUB PUSH3 0xB3 JUMPI PUSH1 0x40 MLOAD PUSH32 0x8C379A000000000000000000000000000000000000000000000000000000000 DUP2 MSTORE PUSH1 0x4 ADD PUSH3 0xAA SWAP1 PUSH3 0x301 JUMP JUMPDEST PUSH1 0x40 MLOAD DUP1 SWAP2 SUB SWAP1 REVERT JUMPDEST PUSH1 0x0 PUSH20 0xFFFFFFFFFFFFFFFFFFFFFFFFFFFFFFFFFFFFFFFF AND DUP2 PUSH20 0xFFFFFFFFFFFFFFFFFFFFFFFFFFFFFFFFFFFFFFFF AND SUB PUSH3 0x125 JUMPI PUSH1 0x40 MLOAD PUSH32 0x8C379A000000000000000000000000000000000000000000000000000000000 DUP2 MSTORE PUSH1 0x4 ADD PUSH3 0x11C SWAP1 PUSH3 0x373 JUMP JUMPDEST PUSH1 0x40 MLOAD DUP1 SWAP2 SUB SWAP1 REVERT JUMPDEST DUP2 PUSH1 0x0 DUP1 PUSH2 0x100 EXP DUP2 SLOAD DUP2 PUSH20 0xFFFFFFFFFFFFFFFFFFFFFFFFFFFFFFFFFFFFFFFF MUL NOT AND SWAP1 DUP4 PUSH20 0xFFFFFFFFFFFFFFFFFFFFFFFFFFFFFFFFFFFFFFFF AND MUL OR SWAP1 SSTORE POP CALLER PUSH1 0x1 PUSH1 0x0 PUSH2 0x100 EXP DUP2 SLOAD DUP2 PUSH20 0xFFFFFFFFFFFFFFFFFFFFFFFFFFFFFFFFFFFFFFFF MUL NOT AND SWAP1 DUP4 PUSH20 0xFFFFFFFFFFFFFFFFFFFFFFFFFFFFFFFFFFFFFFFF AND MUL OR SWAP1 SSTORE POP DUP1 PUSH1 0x2 PUSH1 0x0 PUSH2 0x100 EXP DUP2 SLOAD DUP2 PUSH20 0xFFFFFFFFFFFFFFFFFFFFFFFFFFFFFFFFFFFFFFFF MUL NOT AND SWAP1 DUP4 PUSH20 0xFFFFFFFFFFFFFFFFFFFFFFFFFFFFFFFFFFFFFFFF AND MUL OR SWAP1 SSTORE POP POP POP PUSH3 0x395 JUMP JUMPDEST PUSH1 0x0 DUP1 REVERT JUMPDEST PUSH1 0x0 PUSH20 0xFFFFFFFFFFFFFFFFFFFFFFFFFFFFFFFFFFFFFFFF DUP3 AND SWAP1 POP SWAP2 SWAP1 POP JUMP JUMPDEST PUSH1 0x0 PUSH3 0x221 DUP3 PUSH3 0x1F4 JUMP JUMPDEST SWAP1 POP SWAP2 SWAP1 POP JUMP JUMPDEST PUSH3 0x233 DUP2 PUSH3 0x214 JUMP JUMPDEST DUP2 EQ PUSH3 0x23F JUMPI PUSH1 0x0 DUP1 REVERT JUMPDEST POP JUMP JUMPDEST PUSH1 0x0 DUP2 MLOAD SWAP1 POP PUSH3 0x253 DUP2 PUSH3 0x228 JUMP JUMPDEST SWAP3 SWAP2 POP POP JUMP JUMPDEST PUSH1 0x0 DUP1 PUSH1 0x40 DUP4 DUP6 SUB SLT ISZERO PUSH3 0x273 JUMPI PUSH3 0x272 PUSH3 0x1EF JUMP JUMPDEST JUMPDEST PUSH1 0x0 PUSH3 0x283 DUP6 DUP3 DUP7 ADD PUSH3 0x242 JUMP JUMPDEST SWAP3 POP POP PUSH1 0x20 PUSH3 0x296 DUP6 DUP3 DUP7 ADD PUSH3 0x242 JUMP JUMPDEST SWAP2 POP POP SWAP3 POP SWAP3 SWAP1 POP JUMP JUMPDEST PUSH1 0x0 DUP3 DUP3 MSTORE PUSH1 0x20 DUP3 ADD SWAP1 POP SWAP3 SWAP2 POP POP JUMP JUMPDEST PUSH32 0x7A65726F2073746F72652077616C6C6574000000000000000000000000000000 PUSH1 0x0 DUP3 ADD MSTORE POP JUMP JUMPDEST PUSH1 0x0 PUSH3 0x2E9 PUSH1 0x11 DUP4 PUSH3 0x2A0 JUMP JUMPDEST SWAP2 POP PUSH3 0x2F6 DUP3 PUSH3 0x2B1 JUMP JUMPDEST PUSH1 0x20 DUP3 ADD SWAP1 POP SWAP2 SWAP1 POP JUMP JUMPDEST PUSH1 0x0 PUSH1 0x20 DUP3 ADD SWAP1 POP DUP2 DUP2 SUB PUSH1 0x0 DUP4 ADD MSTORE PUSH3 0x31C DUP2 PUSH3 0x2DA JUMP JUMPDEST SWAP1 POP SWAP2 SWAP1 POP JUMP JUMPDEST PUSH32 0x7A65726F20746F6B656E00000000000000000000000000000000000000000000 PUSH1 0x0 DUP3 ADD MSTORE POP JUMP JUMPDEST PUSH1 0x0 PUSH3 0x35B PUSH1 0xA DUP4 PUSH3 0x2A0 JUMP JUMPDEST SWAP2 POP PUSH3 0x368 DUP3 PUSH3 0x323 JUMP JUMPDEST PUSH1 0x20 DUP3 ADD SWAP1 POP SWAP2 SWAP1 POP JUMP JUMPDEST PUSH1 0x0 PUSH1 0x20 DUP3 ADD SWAP1 POP DUP2 DUP2 SUB PUSH1 0x0 DUP4 ADD MSTORE PUSH3 0x38E DUP2 PUSH3 0x34C JUMP JUMPDEST SWAP1 POP SWAP2 SWAP1 POP JUMP JUMPDEST PUSH2 0x2702 DUP1 PUSH3 0x3A5 PUSH1 0x0 CODECOPY PUSH1 0x0 RETURN INVALID PUSH1 0x80 PUSH1 0x40 MSTORE CALLVALUE DUP1 ISZERO PUSH2 0x10 JUMPI PUSH1 0x0 DUP1 REVERT JUMPDEST POP PUSH1 0x4 CALLDATASIZE LT PUSH2 0xF5 JUMPI PUSH1 0x0 CALLDATALOAD PUSH1 0xE0 SHR DUP1 PUSH4 0x8DA5CB5B GT PUSH2 0x97 JUMPI DUP1 PUSH4 0xC550424C GT PUSH2 0x66 JUMPI DUP1 PUSH4 0xC550424C EQ PUSH2 0x279 JUMPI DUP1 PUSH4 0xD6FEBDE8 EQ PUSH2 0x297 JUMPI DUP1 PUSH4 0xD7073225 EQ PUSH2 0x2B3 JUMPI DUP1 PUSH4 0xF7D97577 EQ PUSH2 0x2CF JUMPI PUSH2 0xF5 JUMP JUMPDEST DUP1 PUSH4 0x8DA5CB5B EQ PUSH2 0x1DF JUMPI DUP1 PUSH4 0xA07B281E EQ PUSH2 0x1FD JUMPI DUP1 PUSH4 0xB72753D5 EQ PUSH2 0x22D JUMPI DUP1 PUSH4 0xB9186D7D EQ PUSH2 0x249 JUMPI PUSH2 0xF5 JUMP JUMPDEST DUP1 PUSH4 0x3129E773 GT PUSH2 0xD3 JUMPI DUP1 PUSH4 0x3129E773 EQ PUSH2 0x152 JUMPI DUP1 PUSH4 0x5C975ABB EQ PUSH2 0x185 JUMPI DUP1 PUSH4 0x5F9810B8 EQ PUSH2 0x1A3 JUMPI DUP1 PUSH4 0x6A868974 EQ PUSH2 0x1C1 JUMPI PUSH2 0xF5 JUMP JUMPDEST DUP1 PUSH4 0x16C38B3C EQ PUSH2 0xFA JUMPI DUP1 PUSH4 0x2A58B330 EQ PUSH2 0x116 JUMPI DUP1 PUSH4 0x2F48AB7D EQ PUSH2 0x134 JUMPI JUMPDEST PUSH1 0x0 DUP1 REVERT JUMPDEST PUSH2 0x114 PUSH1 0x4 DUP1 CALLDATASIZE SUB DUP2 ADD SWAP1 PUSH2 0x10F SWAP2 SWAP1 PUSH2 0x145F JUMP JUMPDEST PUSH2 0x2EB JUMP JUMPDEST STOP JUMPDEST PUSH2 0x11E PUSH2 0x3CF JUMP JUMPDEST PUSH1 0x40 MLOAD PUSH2 0x12B SWAP2 SWAP1 PUSH2 0x14A5 JUMP JUMPDEST PUSH1 0x40 MLOAD DUP1 SWAP2 SUB SWAP1 RETURN JUMPDEST PUSH2 0x13C PUSH2 0x3D5 JUMP JUMPDEST PUSH1 0x40 MLOAD PUSH2 0x149 SWAP2 SWAP1 PUSH2 0x153F JUMP JUMPDEST PUSH1 0x40 MLOAD DUP1 SWAP2 SUB SWAP1 RETURN JUMPDEST PUSH2 0x16C PUSH1 0x4 DUP1 CALLDATASIZE SUB DUP2 ADD SWAP1 PUSH2 0x167 SWAP2 SWAP1 PUSH2 0x1586 JUMP JUMPDEST PUSH2 0x3FB JUMP JUMPDEST PUSH1 0x40 MLOAD PUSH2 0x17C SWAP5 SWAP4 SWAP3 SWAP2 SWAP1 PUSH2 0x1652 JUMP JUMPDEST PUSH1 0x40 MLOAD DUP1 SWAP2 SUB SWAP1 RETURN JUMPDEST PUSH2 0x18D PUSH2 0x4E1 JUMP JUMPDEST PUSH1 0x40 MLOAD PUSH2 0x19A SWAP2 SWAP1 PUSH2 0x169E JUMP JUMPDEST PUSH1 0x40 MLOAD DUP1 SWAP2 SUB SWAP1 RETURN JUMPDEST PUSH2 0x1AB PUSH2 0x4F4 JUMP JUMPDEST PUSH1 0x40 MLOAD PUSH2 0x1B8 SWAP2 SWAP1 PUSH2 0x14A5 JUMP JUMPDEST PUSH1 0x40 MLOAD DUP1 SWAP2 SUB SWAP1 RETURN JUMPDEST PUSH2 0x1C9 PUSH2 0x50A JUMP JUMPDEST PUSH1 0x40 MLOAD PUSH2 0x1D6 SWAP2 SWAP1 PUSH2 0x14A5 JUMP JUMPDEST PUSH1 0x40 MLOAD DUP1 SWAP2 SUB SWAP1 RETURN JUMPDEST PUSH2 0x1E7 PUSH2 0x510 JUMP JUMPDEST PUSH1 0x40 MLOAD PUSH2 0x1F4 SWAP2 SWAP1 PUSH2 0x16DA JUMP JUMPDEST PUSH1 0x40 MLOAD DUP1 SWAP2 SUB SWAP1 RETURN JUMPDEST PUSH2 0x217 PUSH1 0x4 DUP1 CALLDATASIZE SUB DUP2 ADD SWAP1 PUSH2 0x212 SWAP2 SWAP1 PUSH2 0x175A JUMP JUMPDEST PUSH2 0x536 JUMP JUMPDEST PUSH1 0x40 MLOAD PUSH2 0x224 SWAP2 SWAP1 PUSH2 0x14A5 JUMP JUMPDEST PUSH1 0x40 MLOAD DUP1 SWAP2 SUB SWAP1 RETURN JUMPDEST PUSH2 0x247 PUSH1 0x4 DUP1 CALLDATASIZE SUB DUP2 ADD SWAP1 PUSH2 0x242 SWAP2 SWAP1 PUSH2 0x17CE JUMP JUMPDEST PUSH2 0x7A8 JUMP JUMPDEST STOP JUMPDEST PUSH2 0x263 PUSH1 0x4 DUP1 CALLDATASIZE SUB DUP2 ADD SWAP1 PUSH2 0x25E SWAP2 SWAP1 PUSH2 0x1586 JUMP JUMPDEST PUSH2 0x9CC JUMP JUMPDEST PUSH1 0x40 MLOAD PUSH2 0x270 SWAP2 SWAP1 PUSH2 0x14A5 JUMP JUMPDEST PUSH1 0x40 MLOAD DUP1 SWAP2 SUB SWAP1 RETURN JUMPDEST PUSH2 0x281 PUSH2 0x9E4 JUMP JUMPDEST PUSH1 0x40 MLOAD PUSH2 0x28E SWAP2 SWAP1 PUSH2 0x16DA JUMP JUMPDEST PUSH1 0x40 MLOAD DUP1 SWAP2 SUB SWAP1 RETURN JUMPDEST PUSH2 0x2B1 PUSH1 0x4 DUP1 CALLDATASIZE SUB DUP2 ADD SWAP1 PUSH2 0x2AC SWAP2 SWAP1 PUSH2 0x1856 JUMP JUMPDEST PUSH2 0xA08 JUMP JUMPDEST STOP JUMPDEST PUSH2 0x2CD PUSH1 0x4 DUP1 CALLDATASIZE SUB DUP2 ADD SWAP1 PUSH2 0x2C8 SWAP2 SWAP1 PUSH2 0x18C2 JUMP JUMPDEST PUSH2 0xEF0 JUMP JUMPDEST STOP JUMPDEST PUSH2 0x2E9 PUSH1 0x4 DUP1 CALLDATASIZE SUB DUP2 ADD SWAP1 PUSH2 0x2E4 SWAP2 SWAP1 PUSH2 0x1856 JUMP JUMPDEST PUSH2 0x10B3 JUMP JUMPDEST STOP JUMPDEST PUSH1 0x1 PUSH1 0x0 SWAP1 SLOAD SWAP1 PUSH2 0x100 EXP SWAP1 DIV PUSH20 0xFFFFFFFFFFFFFFFFFFFFFFFFFFFFFFFFFFFFFFFF AND PUSH20 0xFFFFFFFFFFFFFFFFFFFFFFFFFFFFFFFFFFFFFFFF AND CALLER PUSH20 0xFFFFFFFFFFFFFFFFFFFFFFFFFFFFFFFFFFFFFFFF AND EQ PUSH2 0x37B JUMPI PUSH1 0x40 MLOAD PUSH32 0x8C379A000000000000000000000000000000000000000000000000000000000 DUP2 MSTORE PUSH1 0x4 ADD PUSH2 0x372 SWAP1 PUSH2 0x193B JUMP JUMPDEST PUSH1 0x40 MLOAD DUP1 SWAP2 SUB SWAP1 REVERT JUMPDEST DUP1 PUSH1 0x4 PUSH1 0x0 PUSH2 0x100 EXP DUP2 SLOAD DUP2 PUSH1 0xFF MUL NOT AND SWAP1 DUP4 ISZERO ISZERO MUL OR SWAP1 SSTORE POP PUSH32 0x946DAF4CB810FC46854501A3633CF3A64F661FAA78A8DA7A74D30BB563C14372 DUP2 PUSH1 0x40 MLOAD PUSH2 0x3C4 SWAP2 SWAP1 PUSH2 0x169E JUMP JUMPDEST PUSH1 0x40 MLOAD DUP1 SWAP2 SUB SWAP1 LOG1 POP JUMP JUMPDEST PUSH1 0x3 SLOAD DUP2 JUMP JUMPDEST PUSH1 0x2 PUSH1 0x0 SWAP1 SLOAD SWAP1 PUSH2 0x100 EXP SWAP1 DIV PUSH20 0xFFFFFFFFFFFFFFFFFFFFFFFFFFFFFFFFFFFFFFFF AND DUP2 JUMP JUMPDEST PUSH1 0x60 PUSH1 0x0 DUP1 PUSH1 0x0 DUP1 PUSH1 0x6 PUSH1 0x0 DUP8 DUP2 MSTORE PUSH1 0x20 ADD SWAP1 DUP2 MSTORE PUSH1 0x20 ADD PUSH1 0x0 KECCAK256 SWAP1 POP DUP1 PUSH1 0x0 ADD DUP2 PUSH1 0x1 ADD SLOAD DUP3 PUSH1 0x2 ADD PUSH1 0x0 SWAP1 SLOAD SWAP1 PUSH2 0x100 EXP SWAP1 DIV PUSH1 0xFF AND DUP4 PUSH1 0x2 ADD PUSH1 0x1 SWAP1 SLOAD SWAP1 PUSH2 0x100 EXP SWAP1 DIV PUSH1 0xFF AND DUP4 DUP1 SLOAD PUSH2 0x451 SWAP1 PUSH2 0x198A JUMP JUMPDEST DUP1 PUSH1 0x1F ADD PUSH1 0x20 DUP1 SWAP2 DIV MUL PUSH1 0x20 ADD PUSH1 0x40 MLOAD SWAP1 DUP2 ADD PUSH1 0x40 MSTORE DUP1 SWAP3 SWAP2 SWAP1 DUP2 DUP2 MSTORE PUSH1 0x20 ADD DUP3 DUP1 SLOAD PUSH2 0x47D SWAP1 PUSH2 0x198A JUMP JUMPDEST DUP1 ISZERO PUSH2 0x4CA JUMPI DUP1 PUSH1 0x1F LT PUSH2 0x49F JUMPI PUSH2 0x100 DUP1 DUP4 SLOAD DIV MUL DUP4 MSTORE SWAP2 PUSH1 0x20 ADD SWAP2 PUSH2 0x4CA JUMP JUMPDEST DUP3 ADD SWAP2 SWAP1 PUSH1 0x0 MSTORE PUSH1 0x20 PUSH1 0x0 KECCAK256 SWAP1 JUMPDEST DUP2 SLOAD DUP2 MSTORE SWAP1 PUSH1 0x1 ADD SWAP1 PUSH1 0x20 ADD DUP1 DUP4 GT PUSH2 0x4AD JUMPI DUP3 SWAP1 SUB PUSH1 0x1F AND DUP3 ADD SWAP2 JUMPDEST POP POP POP POP POP SWAP4 POP SWAP5 POP SWAP5 POP SWAP5 POP SWAP5 POP POP SWAP2 SWAP4 POP SWAP2 SWAP4 JUMP JUMPDEST PUSH1 0x4 PUSH1 0x0 SWAP1 SLOAD SWAP1 PUSH2 0x100 EXP SWAP1 DIV PUSH1 0xFF AND DUP2 JUMP JUMPDEST PUSH1 0x0 PUSH1 0x1 PUSH1 0x5 SLOAD PUSH2 0x505 SWAP2 SWAP1 PUSH2 0x19EA JUMP JUMPDEST SWAP1 POP SWAP1 JUMP JUMPDEST PUSH1 0x5 SLOAD DUP2 JUMP JUMPDEST PUSH1 0x1 PUSH1 0x0 SWAP1 SLOAD SWAP1 PUSH2 0x100 EXP SWAP1 DIV PUSH20 0xFFFFFFFFFFFFFFFFFFFFFFFFFFFFFFFFFFFFFFFF AND DUP2 JUMP JUMPDEST PUSH1 0x0 PUSH1 0x1 PUSH1 0x0 SWAP1 SLOAD SWAP1 PUSH2 0x100 EXP SWAP1 DIV PUSH20 0xFFFFFFFFFFFFFFFFFFFFFFFFFFFFFFFFFFFFFFFF AND PUSH20 0xFFFFFFFFFFFFFFFFFFFFFFFFFFFFFFFFFFFFFFFF AND CALLER PUSH20 0xFFFFFFFFFFFFFFFFFFFFFFFFFFFFFFFFFFFFFFFF AND EQ PUSH2 0x5C8 JUMPI PUSH1 0x40 MLOAD PUSH32 0x8C379A000000000000000000000000000000000000000000000000000000000 DUP2 MSTORE PUSH1 0x4 ADD PUSH2 0x5BF SWAP1 PUSH2 0x193B JUMP JUMPDEST PUSH1 0x40 MLOAD DUP1 SWAP2 SUB SWAP1 REVERT JUMPDEST PUSH1 0x0 DUP6 DUP6 SWAP1 POP GT PUSH2 0x60E JUMPI PUSH1 0x40 MLOAD PUSH32 0x8C379A000000000000000000000000000000000000000000000000000000000 DUP2 MSTORE PUSH1 0x4 ADD PUSH2 0x605 SWAP1 PUSH2 0x1A6A JUMP JUMPDEST PUSH1 0x40 MLOAD DUP1 SWAP2 SUB SWAP1 REVERT JUMPDEST PUSH1 0x0 DUP4 GT PUSH2 0x651 JUMPI PUSH1 0x40 MLOAD PUSH32 0x8C379A000000000000000000000000000000000000000000000000000000000 DUP2 MSTORE PUSH1 0x4 ADD PUSH2 0x648 SWAP1 PUSH2 0x1AD6 JUMP JUMPDEST PUSH1 0x40 MLOAD DUP1 SWAP2 SUB SWAP1 REVERT JUMPDEST PUSH1 0x5 PUSH1 0x0 DUP2 SLOAD DUP1 SWAP3 SWAP2 SWAP1 PUSH2 0x664 SWAP1 PUSH2 0x1AF6 JUMP JUMPDEST SWAP2 SWAP1 POP SSTORE SWAP1 POP PUSH1 0x40 MLOAD DUP1 PUSH1 0x80 ADD PUSH1 0x40 MSTORE DUP1 DUP7 DUP7 DUP1 DUP1 PUSH1 0x1F ADD PUSH1 0x20 DUP1 SWAP2 DIV MUL PUSH1 0x20 ADD PUSH1 0x40 MLOAD SWAP1 DUP2 ADD PUSH1 0x40 MSTORE DUP1 SWAP4 SWAP3 SWAP2 SWAP1 DUP2 DUP2 MSTORE PUSH1 0x20 ADD DUP4 DUP4 DUP1 DUP3 DUP5 CALLDATACOPY PUSH1 0x0 DUP2 DUP5 ADD MSTORE PUSH1 0x1F NOT PUSH1 0x1F DUP3 ADD AND SWAP1 POP DUP1 DUP4 ADD SWAP3 POP POP POP POP POP POP POP DUP2 MSTORE PUSH1 0x20 ADD DUP5 DUP2 MSTORE PUSH1 0x20 ADD DUP4 ISZERO ISZERO DUP2 MSTORE PUSH1 0x20 ADD PUSH1 0x1 ISZERO ISZERO DUP2 MSTORE POP PUSH1 0x6 PUSH1 0x0 DUP4 DUP2 MSTORE PUSH1 0x20 ADD SWAP1 DUP2 MSTORE PUSH1 0x20 ADD PUSH1 0x0 KECCAK256 PUSH1 0x0 DUP3 ADD MLOAD DUP2 PUSH1 0x0 ADD SWAP1 DUP2 PUSH2 0x6FC SWAP2 SWAP1 PUSH2 0x1D0F JUMP JUMPDEST POP PUSH1 0x20 DUP3 ADD MLOAD DUP2 PUSH1 0x1 ADD SSTORE PUSH1 0x40 DUP3 ADD MLOAD DUP2 PUSH1 0x2 ADD PUSH1 0x0 PUSH2 0x100 EXP DUP2 SLOAD DUP2 PUSH1 0xFF MUL NOT AND SWAP1 DUP4 ISZERO ISZERO MUL OR SWAP1 SSTORE POP PUSH1 0x60 DUP3 ADD MLOAD DUP2 PUSH1 0x2 ADD PUSH1 0x1 PUSH2 0x100 EXP DUP2 SLOAD DUP2 PUSH1 0xFF MUL NOT AND SWAP1 DUP4 ISZERO ISZERO MUL OR SWAP1 SSTORE POP SWAP1 POP POP DUP3 PUSH1 0x7 PUSH1 0x0 DUP4 DUP2 MSTORE PUSH1 0x20 ADD SWAP1 DUP2 MSTORE PUSH1 0x20 ADD PUSH1 0x0 KECCAK256 DUP2 SWAP1 SSTORE POP DUP1 PUSH32 0xA6479BA1D8FFB5E464A6E5DF2B50FA0EB731CA01289D353A075AEB47A78925B0 DUP7 DUP7 DUP7 DUP7 PUSH1 0x40 MLOAD PUSH2 0x798 SWAP5 SWAP4 SWAP3 SWAP2 SWAP1 PUSH2 0x1E1D JUMP JUMPDEST PUSH1 0x40 MLOAD DUP1 SWAP2 SUB SWAP1 LOG2 SWAP5 SWAP4 POP POP POP POP JUMP JUMPDEST PUSH1 0x1 PUSH1 0x0 SWAP1 SLOAD SWAP1 PUSH2 0x100 EXP SWAP1 DIV PUSH20 0xFFFFFFFFFFFFFFFFFFFFFFFFFFFFFFFFFFFFFFFF AND PUSH20 0xFFFFFFFFFFFFFFFFFFFFFFFFFFFFFFFFFFFFFFFF AND CALLER PUSH20 0xFFFFFFFFFFFFFFFFFFFFFFFFFFFFFFFFFFFFFFFF AND EQ PUSH2 0x838 JUMPI PUSH1 0x40 MLOAD PUSH32 0x8C379A000000000000000000000000000000000000000000000000000000000 DUP2 MSTORE PUSH1 0x4 ADD PUSH2 0x82F SWAP1 PUSH2 0x193B JUMP JUMPDEST PUSH1 0x40 MLOAD DUP1 SWAP2 SUB SWAP1 REVERT JUMPDEST PUSH1 0x0 PUSH1 0x6 PUSH1 0x0 DUP8 DUP2 MSTORE PUSH1 0x20 ADD SWAP1 DUP2 MSTORE PUSH1 0x20 ADD PUSH1 0x0 KECCAK256 SWAP1 POP DUP1 PUSH1 0x2 ADD PUSH1 0x1 SWAP1 SLOAD SWAP1 PUSH2 0x100 EXP SWAP1 DIV PUSH1 0xFF AND PUSH2 0x8A0 JUMPI PUSH1 0x40 MLOAD PUSH32 0x8C379A000000000000000000000000000000000000000000000000000000000 DUP2 MSTORE PUSH1 0x4 ADD PUSH2 0x897 SWAP1 PUSH2 0x1EA9 JUMP JUMPDEST PUSH1 0x40 MLOAD DUP1 SWAP2 SUB SWAP1 REVERT JUMPDEST PUSH1 0x0 DUP6 DUP6 SWAP1 POP GT PUSH2 0x8E6 JUMPI PUSH1 0x40 MLOAD PUSH32 0x8C379A000000000000000000000000000000000000000000000000000000000 DUP2 MSTORE PUSH1 0x4 ADD PUSH2 0x8DD SWAP1 PUSH2 0x1A6A JUMP JUMPDEST PUSH1 0x40 MLOAD DUP1 SWAP2 SUB SWAP1 REVERT JUMPDEST PUSH1 0x0 DUP4 GT PUSH2 0x929 JUMPI PUSH1 0x40 MLOAD PUSH32 0x8C379A000000000000000000000000000000000000000000000000000000000 DUP2 MSTORE PUSH1 0x4 ADD PUSH2 0x920 SWAP1 PUSH2 0x1AD6 JUMP JUMPDEST PUSH1 0x40 MLOAD DUP1 SWAP2 SUB SWAP1 REVERT JUMPDEST PUSH1 0x0 DUP2 PUSH1 0x1 ADD SLOAD SWAP1 POP DUP6 DUP6 DUP4 PUSH1 0x0 ADD SWAP2 DUP3 PUSH2 0x945 SWAP3 SWAP2 SWAP1 PUSH2 0x1ED4 JUMP JUMPDEST POP DUP4 DUP3 PUSH1 0x1 ADD DUP2 SWAP1 SSTORE POP DUP3 DUP3 PUSH1 0x2 ADD PUSH1 0x0 PUSH2 0x100 EXP DUP2 SLOAD DUP2 PUSH1 0xFF MUL NOT AND SWAP1 DUP4 ISZERO ISZERO MUL OR SWAP1 SSTORE POP DUP4 PUSH1 0x7 PUSH1 0x0 DUP10 DUP2 MSTORE PUSH1 0x20 ADD SWAP1 DUP2 MSTORE PUSH1 0x20 ADD PUSH1 0x0 KECCAK256 DUP2 SWAP1 SSTORE POP DUP7 PUSH32 0xC122FEB53E80DB09FBF3557B844BD93CA6A93C19C7B7E31E92714B33F875ED13 DUP8 DUP8 DUP5 DUP9 DUP9 PUSH1 0x40 MLOAD PUSH2 0x9BB SWAP6 SWAP5 SWAP4 SWAP3 SWAP2 SWAP1 PUSH2 0x1FA4 JUMP JUMPDEST PUSH1 0x40 MLOAD DUP1 SWAP2 SUB SWAP1 LOG2 POP POP POP POP POP POP POP JUMP JUMPDEST PUSH1 0x7 PUSH1 0x20 MSTORE DUP1 PUSH1 0x0 MSTORE PUSH1 0x40 PUSH1 0x0 KECCAK256 PUSH1 0x0 SWAP2 POP SWAP1 POP SLOAD DUP2 JUMP JUMPDEST PUSH1 0x0 DUP1 SLOAD SWAP1 PUSH2 0x100 EXP SWAP1 DIV PUSH20 0xFFFFFFFFFFFFFFFFFFFFFFFFFFFFFFFFFFFFFFFF AND DUP2 JUMP JUMPDEST PUSH1 0x4 PUSH1 0x0 SWAP1 SLOAD SWAP1 PUSH2 0x100 EXP SWAP1 DIV PUSH1 0xFF AND ISZERO PUSH2 0xA58 JUMPI PUSH1 0x40 MLOAD PUSH32 0x8C379A000000000000000000000000000000000000000000000000000000000 DUP2 MSTORE PUSH1 0x4 ADD PUSH2 0xA4F SWAP1 PUSH2 0x203E JUMP JUMPDEST PUSH1 0x40 MLOAD DUP1 SWAP2 SUB SWAP1 REVERT JUMPDEST PUSH1 0x0 DUP2 GT PUSH2 0xA9B JUMPI PUSH1 0x40 MLOAD PUSH32 0x8C379A000000000000000000000000000000000000000000000000000000000 DUP2 MSTORE PUSH1 0x4 ADD PUSH2 0xA92 SWAP1 PUSH2 0x20AA JUMP JUMPDEST PUSH1 0x40 MLOAD DUP1 SWAP2 SUB SWAP1 REVERT JUMPDEST PUSH1 0x0 PUSH1 0x6 PUSH1 0x0 DUP5 DUP2 MSTORE PUSH1 0x20 ADD SWAP1 DUP2 MSTORE PUSH1 0x20 ADD PUSH1 0x0 KECCAK256 SWAP1 POP DUP1 PUSH1 0x2 ADD PUSH1 0x1 SWAP1 SLOAD SWAP1 PUSH2 0x100 EXP SWAP1 DIV PUSH1 0xFF AND PUSH2 0xB03 JUMPI PUSH1 0x40 MLOAD PUSH32 0x8C379A000000000000000000000000000000000000000000000000000000000 DUP2 MSTORE PUSH1 0x4 ADD PUSH2 0xAFA SWAP1 PUSH2 0x1EA9 JUMP JUMPDEST PUSH1 0x40 MLOAD DUP1 SWAP2 SUB SWAP1 REVERT JUMPDEST DUP1 PUSH1 0x2 ADD PUSH1 0x0 SWAP1 SLOAD SWAP1 PUSH2 0x100 EXP SWAP1 DIV PUSH1 0xFF AND PUSH2 0xB54 JUMPI PUSH1 0x40 MLOAD PUSH32 0x8C379A000000000000000000000000000000000000000000000000000000000 DUP2 MSTORE PUSH1 0x4 ADD PUSH2 0xB4B SWAP1 PUSH2 0x2116 JUMP JUMPDEST PUSH1 0x40 MLOAD DUP1 SWAP2 SUB SWAP1 REVERT JUMPDEST PUSH1 0x0 DUP2 PUSH1 0x1 ADD SLOAD SWAP1 POP PUSH1 0x0 DUP2 GT PUSH2 0xBA0 JUMPI PUSH1 0x40 MLOAD PUSH32 0x8C379A000000000000000000000000000000000000000000000000000000000 DUP2 MSTORE PUSH1 0x4 ADD PUSH2 0xB97 SWAP1 PUSH2 0x2116 JUMP JUMPDEST PUSH1 0x40 MLOAD DUP1 SWAP2 SUB SWAP1 REVERT JUMPDEST PUSH1 0x0 DUP4 DUP3 PUSH2 0xBAE SWAP2 SWAP1 PUSH2 0x2136 JUMP JUMPDEST SWAP1 POP PUSH1 0x0 CALLER SWAP1 POP DUP2 PUSH1 0x2 PUSH1 0x0 SWAP1 SLOAD SWAP1 PUSH2 0x100 EXP SWAP1 DIV PUSH20 0xFFFFFFFFFFFFFFFFFFFFFFFFFFFFFFFFFFFFFFFF AND PUSH20 0xFFFFFFFFFFFFFFFFFFFFFFFFFFFFFFFFFFFFFFFF AND PUSH4 0x70A08231 DUP4 PUSH1 0x40 MLOAD DUP3 PUSH4 0xFFFFFFFF AND PUSH1 0xE0 SHL DUP2 MSTORE PUSH1 0x4 ADD PUSH2 0xC11 SWAP2 SWAP1 PUSH2 0x16DA JUMP JUMPDEST PUSH1 0x20 PUSH1 0x40 MLOAD DUP1 DUP4 SUB DUP2 DUP7 GAS STATICCALL ISZERO DUP1 ISZERO PUSH2 0xC2E JUMPI RETURNDATASIZE PUSH1 0x0 DUP1 RETURNDATACOPY RETURNDATASIZE PUSH1 0x0 REVERT JUMPDEST POP POP POP POP PUSH1 0x40 MLOAD RETURNDATASIZE PUSH1 0x1F NOT PUSH1 0x1F DUP3 ADD AND DUP3 ADD DUP1 PUSH1 0x40 MSTORE POP DUP2 ADD SWAP1 PUSH2 0xC52 SWAP2 SWAP1 PUSH2 0x218D JUMP JUMPDEST LT ISZERO PUSH2 0xC93 JUMPI PUSH1 0x40 MLOAD PUSH32 0x8C379A000000000000000000000000000000000000000000000000000000000 DUP2 MSTORE PUSH1 0x4 ADD PUSH2 0xC8A SWAP1 PUSH2 0x2206 JUMP JUMPDEST PUSH1 0x40 MLOAD DUP1 SWAP2 SUB SWAP1 REVERT JUMPDEST DUP2 PUSH1 0x2 PUSH1 0x0 SWAP1 SLOAD SWAP1 PUSH2 0x100 EXP SWAP1 DIV PUSH20 0xFFFFFFFFFFFFFFFFFFFFFFFFFFFFFFFFFFFFFFFF AND PUSH20 0xFFFFFFFFFFFFFFFFFFFFFFFFFFFFFFFFFFFFFFFF AND PUSH4 0xDD62ED3E DUP4 ADDRESS PUSH1 0x40 MLOAD DUP4 PUSH4 0xFFFFFFFF AND PUSH1 0xE0 SHL DUP2 MSTORE PUSH1 0x4 ADD PUSH2 0xCF1 SWAP3 SWAP2 SWAP1 PUSH2 0x2226 JUMP JUMPDEST PUSH1 0x20 PUSH1 0x40 MLOAD DUP1 DUP4 SUB DUP2 DUP7 GAS STATICCALL ISZERO DUP1 ISZERO PUSH2 0xD0E JUMPI RETURNDATASIZE PUSH1 0x0 DUP1 RETURNDATACOPY RETURNDATASIZE PUSH1 0x0 REVERT JUMPDEST POP POP POP POP PUSH1 0x40 MLOAD RETURNDATASIZE PUSH1 0x1F NOT PUSH1 0x1F DUP3 ADD AND DUP3 ADD DUP1 PUSH1 0x40 MSTORE POP DUP2 ADD SWAP1 PUSH2 0xD32 SWAP2 SWAP1 PUSH2 0x218D JUMP JUMPDEST LT ISZERO PUSH2 0xD73 JUMPI PUSH1 0x40 MLOAD PUSH32 0x8C379A000000000000000000000000000000000000000000000000000000000 DUP2 MSTORE PUSH1 0x4 ADD PUSH2 0xD6A SWAP1 PUSH2 0x229B JUMP JUMPDEST PUSH1 0x40 MLOAD DUP1 SWAP2 SUB SWAP1 REVERT JUMPDEST PUSH1 0x0 PUSH1 0x2 PUSH1 0x0 SWAP1 SLOAD SWAP1 PUSH2 0x100 EXP SWAP1 DIV PUSH20 0xFFFFFFFFFFFFFFFFFFFFFFFFFFFFFFFFFFFFFFFF AND PUSH20 0xFFFFFFFFFFFFFFFFFFFFFFFFFFFFFFFFFFFFFFFF AND PUSH4 0x23B872DD DUP4 PUSH1 0x0 DUP1 SLOAD SWAP1 PUSH2 0x100 EXP SWAP1 DIV PUSH20 0xFFFFFFFFFFFFFFFFFFFFFFFFFFFFFFFFFFFFFFFF AND DUP7 PUSH1 0x40 MLOAD DUP5 PUSH4 0xFFFFFFFF AND PUSH1 0xE0 SHL DUP2 MSTORE PUSH1 0x4 ADD PUSH2 0xDF4 SWAP4 SWAP3 SWAP2 SWAP1 PUSH2 0x22BB JUMP JUMPDEST PUSH1 0x20 PUSH1 0x40 MLOAD DUP1 DUP4 SUB DUP2 PUSH1 0x0 DUP8 GAS CALL ISZERO DUP1 ISZERO PUSH2 0xE13 JUMPI RETURNDATASIZE PUSH1 0x0 DUP1 RETURNDATACOPY RETURNDATASIZE PUSH1 0x0 REVERT JUMPDEST POP POP POP POP PUSH1 0x40 MLOAD RETURNDATASIZE PUSH1 0x1F NOT PUSH1 0x1F DUP3 ADD AND DUP3 ADD DUP1 PUSH1 0x40 MSTORE POP DUP2 ADD SWAP1 PUSH2 0xE37 SWAP2 SWAP1 PUSH2 0x2307 JUMP JUMPDEST SWAP1 POP DUP1 PUSH2 0xE79 JUMPI PUSH1 0x40 MLOAD PUSH32 0x8C379A000000000000000000000000000000000000000000000000000000000 DUP2 MSTORE PUSH1 0x4 ADD PUSH2 0xE70 SWAP1 PUSH2 0x2380 JUMP JUMPDEST PUSH1 0x40 MLOAD DUP1 SWAP2 SUB SWAP1 REVERT JUMPDEST PUSH1 0x0 PUSH1 0x3 PUSH1 0x0 DUP2 SLOAD DUP1 SWAP3 SWAP2 SWAP1 PUSH2 0xE8E SWAP1 PUSH2 0x1AF6 JUMP JUMPDEST SWAP2 SWAP1 POP SSTORE SWAP1 POP DUP8 DUP4 PUSH20 0xFFFFFFFFFFFFFFFFFFFFFFFFFFFFFFFFFFFFFFFF AND DUP3 PUSH32 0x73D269AE9C85BFA23C18C756CE946FEE3D4BD61627467B157781630DFD5795E0 DUP11 DUP9 PUSH1 0x40 MLOAD PUSH2 0xEDE SWAP3 SWAP2 SWAP1 PUSH2 0x23A0 JUMP JUMPDEST PUSH1 0x40 MLOAD DUP1 SWAP2 SUB SWAP1 LOG4 POP POP POP POP POP POP POP POP JUMP JUMPDEST PUSH1 0x1 PUSH1 0x0 SWAP1 SLOAD SWAP1 PUSH2 0x100 EXP SWAP1 DIV PUSH20 0xFFFFFFFFFFFFFFFFFFFFFFFFFFFFFFFFFFFFFFFF AND PUSH20 0xFFFFFFFFFFFFFFFFFFFFFFFFFFFFFFFFFFFFFFFF AND CALLER PUSH20 0xFFFFFFFFFFFFFFFFFFFFFFFFFFFFFFFFFFFFFFFF AND EQ PUSH2 0xF80 JUMPI PUSH1 0x40 MLOAD PUSH32 0x8C379A000000000000000000000000000000000000000000000000000000000 DUP2 MSTORE PUSH1 0x4 ADD PUSH2 0xF77 SWAP1 PUSH2 0x193B JUMP JUMPDEST PUSH1 0x40 MLOAD DUP1 SWAP2 SUB SWAP1 REVERT JUMPDEST PUSH1 0x0 PUSH20 0xFFFFFFFFFFFFFFFFFFFFFFFFFFFFFFFFFFFFFFFF AND DUP2 PUSH20 0xFFFFFFFFFFFFFFFFFFFFFFFFFFFFFFFFFFFFFFFF AND SUB PUSH2 0xFEF JUMPI PUSH1 0x40 MLOAD PUSH32 0x8C379A000000000000000000000000000000000000000000000000000000000 DUP2 MSTORE PUSH1 0x4 ADD PUSH2 0xFE6 SWAP1 PUSH2 0x2415 JUMP JUMPDEST PUSH1 0x40 MLOAD DUP1 SWAP2 SUB SWAP1 REVERT JUMPDEST PUSH1 0x0 DUP1 PUSH1 0x0 SWAP1 SLOAD SWAP1 PUSH2 0x100 EXP SWAP1 DIV PUSH20 0xFFFFFFFFFFFFFFFFFFFFFFFFFFFFFFFFFFFFFFFF AND SWAP1 POP DUP2 PUSH1 0x0 DUP1 PUSH2 0x100 EXP DUP2 SLOAD DUP2 PUSH20 0xFFFFFFFFFFFFFFFFFFFFFFFFFFFFFFFFFFFFFFFF MUL NOT AND SWAP1 DUP4 PUSH20 0xFFFFFFFFFFFFFFFFFFFFFFFFFFFFFFFFFFFFFFFF AND MUL OR SWAP1 SSTORE POP DUP2 PUSH20 0xFFFFFFFFFFFFFFFFFFFFFFFFFFFFFFFFFFFFFFFF AND DUP2 PUSH20 0xFFFFFFFFFFFFFFFFFFFFFFFFFFFFFFFFFFFFFFFF AND PUSH32 0x65675FAD7EF99774B8795A090EC2D045DE96D07C01486166F95C1DFD3BB51668 PUSH1 0x40 MLOAD PUSH1 0x40 MLOAD DUP1 SWAP2 SUB SWAP1 LOG3 POP POP JUMP JUMPDEST PUSH1 0x1 PUSH1 0x0 SWAP1 SLOAD SWAP1 PUSH2 0x100 EXP SWAP1 DIV PUSH20 0xFFFFFFFFFFFFFFFFFFFFFFFFFFFFFFFFFFFFFFFF AND PUSH20 0xFFFFFFFFFFFFFFFFFFFFFFFFFFFFFFFFFFFFFFFF AND CALLER PUSH20 0xFFFFFFFFFFFFFFFFFFFFFFFFFFFFFFFFFFFFFFFF AND EQ PUSH2 0x1143 JUMPI PUSH1 0x40 MLOAD PUSH32 0x8C379A000000000000000000000000000000000000000000000000000000000 DUP2 MSTORE PUSH1 0x4 ADD PUSH2 0x113A SWAP1 PUSH2 0x193B JUMP JUMPDEST PUSH1 0x40 MLOAD DUP1 SWAP2 SUB SWAP1 REVERT JUMPDEST PUSH1 0x0 DUP2 GT PUSH2 0x1186 JUMPI PUSH1 0x40 MLOAD PUSH32 0x8C379A000000000000000000000000000000000000000000000000000000000 DUP2 MSTORE PUSH1 0x4 ADD PUSH2 0x117D SWAP1 PUSH2 0x1AD6 JUMP JUMPDEST PUSH1 0x40 MLOAD DUP1 SWAP2 SUB SWAP1 REVERT JUMPDEST PUSH1 0x0 PUSH1 0x7 PUSH1 0x0 DUP5 DUP2 MSTORE PUSH1 0x20 ADD SWAP1 DUP2 MSTORE PUSH1 0x20 ADD PUSH1 0x0 KECCAK256 SLOAD SWAP1 POP DUP2 PUSH1 0x7 PUSH1 0x0 DUP6 DUP2 MSTORE PUSH1 0x20 ADD SWAP1 DUP2 MSTORE PUSH1 0x20 ADD PUSH1 0x0 KECCAK256 DUP2 SWAP1 SSTORE POP PUSH1 0x0 PUSH1 0x6 PUSH1 0x0 DUP6 DUP2 MSTORE PUSH1 0x20 ADD SWAP1 DUP2 MSTORE PUSH1 0x20 ADD PUSH1 0x0 KECCAK256 SWAP1 POP DUP1 PUSH1 0x2 ADD PUSH1 0x1 SWAP1 SLOAD SWAP1 PUSH2 0x100 EXP SWAP1 DIV PUSH1 0xFF AND PUSH2 0x1257 JUMPI PUSH1 0x1 DUP2 PUSH1 0x2 ADD PUSH1 0x1 PUSH2 0x100 EXP DUP2 SLOAD DUP2 PUSH1 0xFF MUL NOT AND SWAP1 DUP4 ISZERO ISZERO MUL OR SWAP1 SSTORE POP PUSH1 0x1 DUP2 PUSH1 0x2 ADD PUSH1 0x0 PUSH2 0x100 EXP DUP2 SLOAD DUP2 PUSH1 0xFF MUL NOT AND SWAP1 DUP4 ISZERO ISZERO MUL OR SWAP1 SSTORE POP PUSH2 0x1226 DUP5 PUSH2 0x12B8 JUMP JUMPDEST PUSH1 0x40 MLOAD PUSH1 0x20 ADD PUSH2 0x1236 SWAP2 SWAP1 PUSH2 0x24BD JUMP JUMPDEST PUSH1 0x40 MLOAD PUSH1 0x20 DUP2 DUP4 SUB SUB DUP2 MSTORE SWAP1 PUSH1 0x40 MSTORE DUP2 PUSH1 0x0 ADD SWAP1 DUP2 PUSH2 0x1255 SWAP2 SWAP1 PUSH2 0x1D0F JUMP JUMPDEST POP JUMPDEST DUP3 DUP2 PUSH1 0x1 ADD DUP2 SWAP1 SSTORE POP DUP4 PUSH32 0xC122FEB53E80DB09FBF3557B844BD93CA6A93C19C7B7E31E92714B33F875ED13 DUP3 PUSH1 0x0 ADD DUP5 DUP7 DUP6 PUSH1 0x2 ADD PUSH1 0x0 SWAP1 SLOAD SWAP1 PUSH2 0x100 EXP SWAP1 DIV PUSH1 0xFF AND PUSH1 0x40 MLOAD PUSH2 0x12AA SWAP5 SWAP4 SWAP3 SWAP2 SWAP1 PUSH2 0x2563 JUMP JUMPDEST PUSH1 0x40 MLOAD DUP1 SWAP2 SUB SWAP1 LOG2 POP POP POP POP JUMP JUMPDEST PUSH1 0x60 PUSH1 0x0 DUP3 SUB PUSH2 0x12FF JUMPI PUSH1 0x40 MLOAD DUP1 PUSH1 0x40 ADD PUSH1 0x40 MSTORE DUP1 PUSH1 0x1 DUP2 MSTORE PUSH1 0x20 ADD PUSH32 0x3000000000000000000000000000000000000000000000000000000000000000 DUP2 MSTORE POP SWAP1 POP PUSH2 0x1418 JUMP JUMPDEST PUSH1 0x0 DUP3 SWAP1 POP PUSH1 0x0 JUMPDEST PUSH1 0x0 DUP3 EQ PUSH2 0x1331 JUMPI DUP1 DUP1 PUSH2 0x131A SWAP1 PUSH2 0x1AF6 JUMP JUMPDEST SWAP2 POP POP PUSH1 0xA DUP3 PUSH2 0x132A SWAP2 SWAP1 PUSH2 0x25DE JUMP JUMPDEST SWAP2 POP PUSH2 0x1307 JUMP JUMPDEST PUSH1 0x0 DUP2 PUSH8 0xFFFFFFFFFFFFFFFF DUP2 GT ISZERO PUSH2 0x134D JUMPI PUSH2 0x134C PUSH2 0x1B3E JUMP JUMPDEST JUMPDEST PUSH1 0x40 MLOAD SWAP1 DUP1 DUP3 MSTORE DUP1 PUSH1 0x1F ADD PUSH1 0x1F NOT AND PUSH1 0x20 ADD DUP3 ADD PUSH1 0x40 MSTORE DUP1 ISZERO PUSH2 0x137F JUMPI DUP2 PUSH1 0x20 ADD PUSH1 0x1 DUP3 MUL DUP1 CALLDATASIZE DUP4 CALLDATACOPY DUP1 DUP3 ADD SWAP2 POP POP SWAP1 POP JUMPDEST POP SWAP1 POP PUSH1 0x0 DUP3 SWAP1 POP JUMPDEST PUSH1 0x0 DUP7 EQ PUSH2 0x1410 JUMPI DUP1 DUP1 PUSH2 0x139B SWAP1 PUSH2 0x260F JUMP JUMPDEST SWAP2 POP POP PUSH1 0xA DUP7 PUSH2 0x13AB SWAP2 SWAP1 PUSH2 0x2638 JUMP JUMPDEST PUSH1 0x30 PUSH2 0x13B7 SWAP2 SWAP1 PUSH2 0x2669 JUMP JUMPDEST PUSH1 0xF8 SHL DUP3 DUP3 DUP2 MLOAD DUP2 LT PUSH2 0x13CD JUMPI PUSH2 0x13CC PUSH2 0x269D JUMP JUMPDEST JUMPDEST PUSH1 0x20 ADD ADD SWAP1 PUSH31 0xFFFFFFFFFFFFFFFFFFFFFFFFFFFFFFFFFFFFFFFFFFFFFFFFFFFFFFFFFFFFFF NOT AND SWAP1 DUP2 PUSH1 0x0 BYTE SWAP1 MSTORE8 POP PUSH1 0xA DUP7 PUSH2 0x1409 SWAP2 SWAP1 PUSH2 0x25DE JUMP JUMPDEST SWAP6 POP PUSH2 0x1388 JUMP JUMPDEST DUP2 SWAP5 POP POP POP POP POP JUMPDEST SWAP2 SWAP1 POP JUMP JUMPDEST PUSH1 0x0 DUP1 REVERT JUMPDEST PUSH1 0x0 DUP1 REVERT JUMPDEST PUSH1 0x0 DUP2 ISZERO ISZERO SWAP1 POP SWAP2 SWAP1 POP JUMP JUMPDEST PUSH2 0x143C DUP2 PUSH2 0x1427 JUMP JUMPDEST DUP2 EQ PUSH2 0x1447 JUMPI PUSH1 0x0 DUP1 REVERT JUMPDEST POP JUMP JUMPDEST PUSH1 0x0 DUP2 CALLDATALOAD SWAP1 POP PUSH2 0x1459 DUP2 PUSH2 0x1433 JUMP JUMPDEST SWAP3 SWAP2 POP POP JUMP JUMPDEST PUSH1 0x0 PUSH1 0x20 DUP3 DUP5 SUB SLT ISZERO PUSH2 0x1475 JUMPI PUSH2 0x1474 PUSH2 0x141D JUMP JUMPDEST JUMPDEST PUSH1 0x0 PUSH2 0x1483 DUP5 DUP3 DUP6 ADD PUSH2 0x144A JUMP JUMPDEST SWAP2 POP POP SWAP3 SWAP2 POP POP JUMP JUMPDEST PUSH1 0x0 DUP2 SWAP1 POP SWAP2 SWAP1 POP JUMP JUMPDEST PUSH2 0x149F DUP2 PUSH2 0x148C JUMP JUMPDEST DUP3 MSTORE POP POP JUMP JUMPDEST PUSH1 0x0 PUSH1 0x20 DUP3 ADD SWAP1 POP PUSH2 0x14BA PUSH1 0x0 DUP4 ADD DUP5 PUSH2 0x1496 JUMP JUMPDEST SWAP3 SWAP2 POP POP JUMP JUMPDEST PUSH1 0x0 PUSH20 0xFFFFFFFFFFFFFFFFFFFFFFFFFFFFFFFFFFFFFFFF DUP3 AND SWAP1 POP SWAP2 SWAP1 POP JUMP JUMPDEST PUSH1 0x0 DUP2 SWAP1 POP SWAP2 SWAP1 POP JUMP JUMPDEST PUSH1 0x0 PUSH2 0x1505 PUSH2 0x1500 PUSH2 0x14FB DUP5 PUSH2 0x14C0 JUMP JUMPDEST PUSH2 0x14E0 JUMP JUMPDEST PUSH2 0x14C0 JUMP JUMPDEST SWAP1 POP SWAP2 SWAP1 POP JUMP JUMPDEST PUSH1 0x0 PUSH2 0x1517 DUP3 PUSH2 0x14EA JUMP JUMPDEST SWAP1 POP SWAP2 SWAP1 POP JUMP JUMPDEST PUSH1 0x0 PUSH2 0x1529 DUP3 PUSH2 0x150C JUMP JUMPDEST SWAP1 POP SWAP2 SWAP1 POP JUMP JUMPDEST PUSH2 0x1539 DUP2 PUSH2 0x151E JUMP JUMPDEST DUP3 MSTORE POP POP JUMP JUMPDEST PUSH1 0x0 PUSH1 0x20 DUP3 ADD SWAP1 POP PUSH2 0x1554 PUSH1 0x0 DUP4 ADD DUP5 PUSH2 0x1530 JUMP JUMPDEST SWAP3 SWAP2 POP POP JUMP JUMPDEST PUSH2 0x1563 DUP2 PUSH2 0x148C JUMP JUMPDEST DUP2 EQ PUSH2 0x156E JUMPI PUSH1 0x0 DUP1 REVERT JUMPDEST POP JUMP JUMPDEST PUSH1 0x0 DUP2 CALLDATALOAD SWAP1 POP PUSH2 0x1580 DUP2 PUSH2 0x155A JUMP JUMPDEST SWAP3 SWAP2 POP POP JUMP JUMPDEST PUSH1 0x0 PUSH1 0x20 DUP3 DUP5 SUB SLT ISZERO PUSH2 0x159C JUMPI PUSH2 0x159B PUSH2 0x141D JUMP JUMPDEST JUMPDEST PUSH1 0x0 PUSH2 0x15AA DUP5 DUP3 DUP6 ADD PUSH2 0x1571 JUMP JUMPDEST SWAP2 POP POP SWAP3 SWAP2 POP POP JUMP JUMPDEST PUSH1 0x0 DUP2 MLOAD SWAP1 POP SWAP2 SWAP1 POP JUMP JUMPDEST PUSH1 0x0 DUP3 DUP3 MSTORE PUSH1 0x20 DUP3 ADD SWAP1 POP SWAP3 SWAP2 POP POP JUMP JUMPDEST PUSH1 0x0 JUMPDEST DUP4 DUP2 LT ISZERO PUSH2 0x15ED JUMPI DUP1 DUP3 ADD MLOAD DUP2 DUP5 ADD MSTORE PUSH1 0x20 DUP2 ADD SWAP1 POP PUSH2 0x15D2 JUMP JUMPDEST PUSH1 0x0 DUP5 DUP5 ADD MSTORE POP POP POP POP JUMP JUMPDEST PUSH1 0x0 PUSH1 0x1F NOT PUSH1 0x1F DUP4 ADD AND SWAP1 POP SWAP2 SWAP1 POP JUMP JUMPDEST PUSH1 0x0 PUSH2 0x1615 DUP3 PUSH2 0x15B3 JUMP JUMPDEST PUSH2 0x161F DUP2 DUP6 PUSH2 0x15BE JUMP JUMPDEST SWAP4 POP PUSH2 0x162F DUP2 DUP6 PUSH1 0x20 DUP7 ADD PUSH2 0x15CF JUMP JUMPDEST PUSH2 0x1638 DUP2 PUSH2 0x15F9 JUMP JUMPDEST DUP5 ADD SWAP2 POP POP SWAP3 SWAP2 POP POP JUMP JUMPDEST PUSH2 0x164C DUP2 PUSH2 0x1427 JUMP JUMPDEST DUP3 MSTORE POP POP JUMP JUMPDEST PUSH1 0x0 PUSH1 0x80 DUP3 ADD SWAP1 POP DUP2 DUP2 SUB PUSH1 0x0 DUP4 ADD MSTORE PUSH2 0x166C DUP2 DUP8 PUSH2 0x160A JUMP JUMPDEST SWAP1 POP PUSH2 0x167B PUSH1 0x20 DUP4 ADD DUP7 PUSH2 0x1496 JUMP JUMPDEST PUSH2 0x1688 PUSH1 0x40 DUP4 ADD DUP6 PUSH2 0x1643 JUMP JUMPDEST PUSH2 0x1695 PUSH1 0x60 DUP4 ADD DUP5 PUSH2 0x1643 JUMP JUMPDEST SWAP6 SWAP5 POP POP POP POP POP JUMP JUMPDEST PUSH1 0x0 PUSH1 0x20 DUP3 ADD SWAP1 POP PUSH2 0x16B3 PUSH1 0x0 DUP4 ADD DUP5 PUSH2 0x1643 JUMP JUMPDEST SWAP3 SWAP2 POP POP JUMP JUMPDEST PUSH1 0x0 PUSH2 0x16C4 DUP3 PUSH2 0x14C0 JUMP JUMPDEST SWAP1 POP SWAP2 SWAP1 POP JUMP JUMPDEST PUSH2 0x16D4 DUP2 PUSH2 0x16B9 JUMP JUMPDEST DUP3 MSTORE POP POP JUMP JUMPDEST PUSH1 0x0 PUSH1 0x20 DUP3 ADD SWAP1 POP PUSH2 0x16EF PUSH1 0x0 DUP4 ADD DUP5 PUSH2 0x16CB JUMP JUMPDEST SWAP3 SWAP2 POP POP JUMP JUMPDEST PUSH1 0x0 DUP1 REVERT JUMPDEST PUSH1 0x0 DUP1 REVERT JUMPDEST PUSH1 0x0 DUP1 REVERT JUMPDEST PUSH1 0x0 DUP1 DUP4 PUSH1 0x1F DUP5 ADD SLT PUSH2 0x171A JUMPI PUSH2 0x1719 PUSH2 0x16F5 JUMP JUMPDEST JUMPDEST DUP3 CALLDATALOAD SWAP1 POP PUSH8 0xFFFFFFFFFFFFFFFF DUP2 GT ISZERO PUSH2 0x1737 JUMPI PUSH2 0x1736 PUSH2 0x16FA JUMP JUMPDEST JUMPDEST PUSH1 0x20 DUP4 ADD SWAP2 POP DUP4 PUSH1 0x1 DUP3 MUL DUP4 ADD GT ISZERO PUSH2 0x1753 JUMPI PUSH2 0x1752 PUSH2 0x16FF JUMP JUMPDEST JUMPDEST SWAP3 POP SWAP3 SWAP1 POP JUMP JUMPDEST PUSH1 0x0 DUP1 PUSH1 0x0 DUP1 PUSH1 0x60 DUP6 DUP8 SUB SLT ISZERO PUSH2 0x1774 JUMPI PUSH2 0x1773 PUSH2 0x141D JUMP JUMPDEST JUMPDEST PUSH1 0x0 DUP6 ADD CALLDATALOAD PUSH8 0xFFFFFFFFFFFFFFFF DUP2 GT ISZERO PUSH2 0x1792 JUMPI PUSH2 0x1791 PUSH2 0x1422 JUMP JUMPDEST JUMPDEST PUSH2 0x179E DUP8 DUP3 DUP9 ADD PUSH2 0x1704 JUMP JUMPDEST SWAP5 POP SWAP5 POP POP PUSH1 0x20 PUSH2 0x17B1 DUP8 DUP3 DUP9 ADD PUSH2 0x1571 JUMP JUMPDEST SWAP3 POP POP PUSH1 0x40 PUSH2 0x17C2 DUP8 DUP3 DUP9 ADD PUSH2 0x144A JUMP JUMPDEST SWAP2 POP POP SWAP3 SWAP6 SWAP2 SWAP5 POP SWAP3 POP JUMP JUMPDEST PUSH1 0x0 DUP1 PUSH1 0x0 DUP1 PUSH1 0x0 PUSH1 0x80 DUP7 DUP9 SUB SLT ISZERO PUSH2 0x17EA JUMPI PUSH2 0x17E9 PUSH2 0x141D JUMP JUMPDEST JUMPDEST PUSH1 0x0 PUSH2 0x17F8 DUP9 DUP3 DUP10 ADD PUSH2 0x1571 JUMP JUMPDEST SWAP6 POP POP PUSH1 0x20 DUP7 ADD CALLDATALOAD PUSH8 0xFFFFFFFFFFFFFFFF DUP2 GT ISZERO PUSH2 0x1819 JUMPI PUSH2 0x1818 PUSH2 0x1422 JUMP JUMPDEST JUMPDEST PUSH2 0x1825 DUP9 DUP3 DUP10 ADD PUSH2 0x1704 JUMP JUMPDEST SWAP5 POP SWAP5 POP POP PUSH1 0x40 PUSH2 0x1838 DUP9 DUP3 DUP10 ADD PUSH2 0x1571 JUMP JUMPDEST SWAP3 POP POP PUSH1 0x60 PUSH2 0x1849 DUP9 DUP3 DUP10 ADD PUSH2 0x144A JUMP JUMPDEST SWAP2 POP POP SWAP3 SWAP6 POP SWAP3 SWAP6 SWAP1 SWAP4 POP JUMP JUMPDEST PUSH1 0x0 DUP1 PUSH1 0x40 DUP4 DUP6 SUB SLT ISZERO PUSH2 0x186D JUMPI PUSH2 0x186C PUSH2 0x141D JUMP JUMPDEST JUMPDEST PUSH1 0x0 PUSH2 0x187B DUP6 DUP3 DUP7 ADD PUSH2 0x1571 JUMP JUMPDEST SWAP3 POP POP PUSH1 0x20 PUSH2 0x188C DUP6 DUP3 DUP7 ADD PUSH2 0x1571 JUMP JUMPDEST SWAP2 POP POP SWAP3 POP SWAP3 SWAP1 POP JUMP JUMPDEST PUSH2 0x189F DUP2 PUSH2 0x16B9 JUMP JUMPDEST DUP2 EQ PUSH2 0x18AA JUMPI PUSH1 0x0 DUP1 REVERT JUMPDEST POP JUMP JUMPDEST PUSH1 0x0 DUP2 CALLDATALOAD SWAP1 POP PUSH2 0x18BC DUP2 PUSH2 0x1896 JUMP JUMPDEST SWAP3 SWAP2 POP POP JUMP JUMPDEST PUSH1 0x0 PUSH1 0x20 DUP3 DUP5 SUB SLT ISZERO PUSH2 0x18D8 JUMPI PUSH2 0x18D7 PUSH2 0x141D JUMP JUMPDEST JUMPDEST PUSH1 0x0 PUSH2 0x18E6 DUP5 DUP3 DUP6 ADD PUSH2 0x18AD JUMP JUMPDEST SWAP2 POP POP SWAP3 SWAP2 POP POP JUMP JUMPDEST PUSH32 0x6E6F74206F776E65720000000000000000000000000000000000000000000000 PUSH1 0x0 DUP3 ADD MSTORE POP JUMP JUMPDEST PUSH1 0x0 PUSH2 0x1925 PUSH1 0x9 DUP4 PUSH2 0x15BE JUMP JUMPDEST SWAP2 POP PUSH2 0x1930 DUP3 PUSH2 0x18EF JUMP JUMPDEST PUSH1 0x20 DUP3 ADD SWAP1 POP SWAP2 SWAP1 POP JUMP JUMPDEST PUSH1 0x0 PUSH1 0x20 DUP3 ADD SWAP1 POP DUP2 DUP2 SUB PUSH1 0x0 DUP4 ADD MSTORE PUSH2 0x1954 DUP2 PUSH2 0x1918 JUMP JUMPDEST SWAP1 POP SWAP2 SWAP1 POP JUMP JUMPDEST PUSH32 0x4E487B7100000000000000000000000000000000000000000000000000000000 PUSH1 0x0 MSTORE PUSH1 0x22 PUSH1 0x4 MSTORE PUSH1 0x24 PUSH1 0x0 REVERT JUMPDEST PUSH1 0x0 PUSH1 0x2 DUP3 DIV SWAP1 POP PUSH1 0x1 DUP3 AND DUP1 PUSH2 0x19A2 JUMPI PUSH1 0x7F DUP3 AND SWAP2 POP JUMPDEST PUSH1 0x20 DUP3 LT DUP2 SUB PUSH2 0x19B5 JUMPI PUSH2 0x19B4 PUSH2 0x195B JUMP JUMPDEST JUMPDEST POP SWAP2 SWAP1 POP JUMP JUMPDEST PUSH32 0x4E487B7100000000000000000000000000000000000000000000000000000000 PUSH1 0x0 MSTORE PUSH1 0x11 PUSH1 0x4 MSTORE PUSH1 0x24 PUSH1 0x0 REVERT JUMPDEST PUSH1 0x0 PUSH2 0x19F5 DUP3 PUSH2 0x148C JUMP JUMPDEST SWAP2 POP PUSH2 0x1A00 DUP4 PUSH2 0x148C JUMP JUMPDEST SWAP3 POP DUP3 DUP3 SUB SWAP1 POP DUP2 DUP2 GT ISZERO PUSH2 0x1A18 JUMPI PUSH2 0x1A17 PUSH2 0x19BB JUMP JUMPDEST JUMPDEST SWAP3 SWAP2 POP POP JUMP JUMPDEST PUSH32 0x6E616D6520656D70747900000000000000000000000000000000000000000000 PUSH1 0x0 DUP3 ADD MSTORE POP JUMP JUMPDEST PUSH1 0x0 PUSH2 0x1A54 PUSH1 0xA DUP4 PUSH2 0x15BE JUMP JUMPDEST SWAP2 POP PUSH2 0x1A5F DUP3 PUSH2 0x1A1E JUMP JUMPDEST PUSH1 0x20 DUP3 ADD SWAP1 POP SWAP2 SWAP1 POP JUMP JUMPDEST PUSH1 0x0 PUSH1 0x20 DUP3 ADD SWAP1 POP DUP2 DUP2 SUB PUSH1 0x0 DUP4 ADD MSTORE PUSH2 0x1A83 DUP2 PUSH2 0x1A47 JUMP JUMPDEST SWAP1 POP SWAP2 SWAP1 POP JUMP JUMPDEST PUSH32 0x7072696365206D757374206265203E2030000000000000000000000000000000 PUSH1 0x0 DUP3 ADD MSTORE POP JUMP JUMPDEST PUSH1 0x0 PUSH2 0x1AC0 PUSH1 0x11 DUP4 PUSH2 0x15BE JUMP JUMPDEST SWAP2 POP PUSH2 0x1ACB DUP3 PUSH2 0x1A8A JUMP JUMPDEST PUSH1 0x20 DUP3 ADD SWAP1 POP SWAP2 SWAP1 POP JUMP JUMPDEST PUSH1 0x0 PUSH1 0x20 DUP3 ADD SWAP1 POP DUP2 DUP2 SUB PUSH1 0x0 DUP4 ADD MSTORE PUSH2 0x1AEF DUP2 PUSH2 0x1AB3 JUMP JUMPDEST SWAP1 POP SWAP2 SWAP1 POP JUMP JUMPDEST PUSH1 0x0 PUSH2 0x1B01 DUP3 PUSH2 0x148C JUMP JUMPDEST SWAP2 POP PUSH32 0xFFFFFFFFFFFFFFFFFFFFFFFFFFFFFFFFFFFFFFFFFFFFFFFFFFFFFFFFFFFFFFFF DUP3 SUB PUSH2 0x1B33 JUMPI PUSH2 0x1B32 PUSH2 0x19BB JUMP JUMPDEST JUMPDEST PUSH1 0x1 DUP3 ADD SWAP1 POP SWAP2 SWAP1 POP JUMP JUMPDEST PUSH32 0x4E487B7100000000000000000000000000000000000000000000000000000000 PUSH1 0x0 MSTORE PUSH1 0x41 PUSH1 0x4 MSTORE PUSH1 0x24 PUSH1 0x0 REVERT JUMPDEST PUSH1 0x0 DUP2 SWAP1 POP DUP2 PUSH1 0x0 MSTORE PUSH1 0x20 PUSH1 0x0 KECCAK256 SWAP1 POP SWAP2 SWAP1 POP JUMP JUMPDEST PUSH1 0x0 PUSH1 0x20 PUSH1 0x1F DUP4 ADD DIV SWAP1 POP SWAP2 SWAP1 POP JUMP JUMPDEST PUSH1 0x0 DUP3 DUP3 SHL SWAP1 POP SWAP3 SWAP2 POP POP JUMP JUMPDEST PUSH1 0x0 PUSH1 0x8 DUP4 MUL PUSH2 0x1BCF PUSH32 0xFFFFFFFFFFFFFFFFFFFFFFFFFFFFFFFFFFFFFFFFFFFFFFFFFFFFFFFFFFFFFFFF DUP3 PUSH2 0x1B92 JUMP JUMPDEST PUSH2 0x1BD9 DUP7 DUP4 PUSH2 0x1B92 JUMP JUMPDEST SWAP6 POP DUP1 NOT DUP5 AND SWAP4 POP DUP1 DUP7 AND DUP5 OR SWAP3 POP POP POP SWAP4 SWAP3 POP POP POP JUMP JUMPDEST PUSH1 0x0 PUSH2 0x1C0C PUSH2 0x1C07 PUSH2 0x1C02 DUP5 PUSH2 0x148C JUMP JUMPDEST PUSH2 0x14E0 JUMP JUMPDEST PUSH2 0x148C JUMP JUMPDEST SWAP1 POP SWAP2 SWAP1 POP JUMP JUMPDEST PUSH1 0x0 DUP2 SWAP1 POP SWAP2 SWAP1 POP JUMP JUMPDEST PUSH2 0x1C26 DUP4 PUSH2 0x1BF1 JUMP JUMPDEST PUSH2 0x1C3A PUSH2 0x1C32 DUP3 PUSH2 0x1C13 JUMP JUMPDEST DUP5 DUP5 SLOAD PUSH2 0x1B9F JUMP JUMPDEST DUP3 SSTORE POP POP POP POP JUMP JUMPDEST PUSH1 0x0 SWAP1 JUMP JUMPDEST PUSH2 0x1C4F PUSH2 0x1C42 JUMP JUMPDEST PUSH2 0x1C5A DUP2 DUP5 DUP5 PUSH2 0x1C1D JUMP JUMPDEST POP POP POP JUMP JUMPDEST JUMPDEST DUP2 DUP2 LT ISZERO PUSH2 0x1C7E JUMPI PUSH2 0x1C73 PUSH1 0x0 DUP3 PUSH2 0x1C47 JUMP JUMPDEST PUSH1 0x1 DUP2 ADD SWAP1 POP PUSH2 0x1C60 JUMP JUMPDEST POP POP JUMP JUMPDEST PUSH1 0x1F DUP3 GT ISZERO PUSH2 0x1CC3 JUMPI PUSH2 0x1C94 DUP2 PUSH2 0x1B6D JUMP JUMPDEST PUSH2 0x1C9D DUP5 PUSH2 0x1B82 JUMP JUMPDEST DUP2 ADD PUSH1 0x20 DUP6 LT ISZERO PUSH2 0x1CAC JUMPI DUP2 SWAP1 POP JUMPDEST PUSH2 0x1CC0 PUSH2 0x1CB8 DUP6 PUSH2 0x1B82 JUMP JUMPDEST DUP4 ADD DUP3 PUSH2 0x1C5F JUMP JUMPDEST POP POP JUMPDEST POP POP POP JUMP JUMPDEST PUSH1 0x0 DUP3 DUP3 SHR SWAP1 POP SWAP3 SWAP2 POP POP JUMP JUMPDEST PUSH1 0x0 PUSH2 0x1CE6 PUSH1 0x0 NOT DUP5 PUSH1 0x8 MUL PUSH2 0x1CC8 JUMP JUMPDEST NOT DUP1 DUP4 AND SWAP2 POP POP SWAP3 SWAP2 POP POP JUMP JUMPDEST PUSH1 0x0 PUSH2 0x1CFF DUP4 DUP4 PUSH2 0x1CD5 JUMP JUMPDEST SWAP2 POP DUP3 PUSH1 0x2 MUL DUP3 OR SWAP1 POP SWAP3 SWAP2 POP POP JUMP JUMPDEST PUSH2 0x1D18 DUP3 PUSH2 0x15B3 JUMP JUMPDEST PUSH8 0xFFFFFFFFFFFFFFFF DUP2 GT ISZERO PUSH2 0x1D31 JUMPI PUSH2 0x1D30 PUSH2 0x1B3E JUMP JUMPDEST JUMPDEST PUSH2 0x1D3B DUP3 SLOAD PUSH2 0x198A JUMP JUMPDEST PUSH2 0x1D46 DUP3 DUP3 DUP6 PUSH2 0x1C82 JUMP JUMPDEST PUSH1 0x0 PUSH1 0x20 SWAP1 POP PUSH1 0x1F DUP4 GT PUSH1 0x1 DUP2 EQ PUSH2 0x1D79 JUMPI PUSH1 0x0 DUP5 ISZERO PUSH2 0x1D67 JUMPI DUP3 DUP8 ADD MLOAD SWAP1 POP JUMPDEST PUSH2 0x1D71 DUP6 DUP3 PUSH2 0x1CF3 JUMP JUMPDEST DUP7 SSTORE POP PUSH2 0x1DD9 JUMP JUMPDEST PUSH1 0x1F NOT DUP5 AND PUSH2 0x1D87 DUP7 PUSH2 0x1B6D JUMP JUMPDEST PUSH1 0x0 JUMPDEST DUP3 DUP2 LT ISZERO PUSH2 0x1DAF JUMPI DUP5 DUP10 ADD MLOAD DUP3 SSTORE PUSH1 0x1 DUP3 ADD SWAP2 POP PUSH1 0x20 DUP6 ADD SWAP5 POP PUSH1 0x20 DUP2 ADD SWAP1 POP PUSH2 0x1D8A JUMP JUMPDEST DUP7 DUP4 LT ISZERO PUSH2 0x1DCC JUMPI DUP5 DUP10 ADD MLOAD PUSH2 0x1DC8 PUSH1 0x1F DUP10 AND DUP3 PUSH2 0x1CD5 JUMP JUMPDEST DUP4 SSTORE POP JUMPDEST PUSH1 0x1 PUSH1 0x2 DUP9 MUL ADD DUP9 SSTORE POP POP POP JUMPDEST POP POP POP POP POP POP JUMP JUMPDEST DUP3 DUP2 DUP4 CALLDATACOPY PUSH1 0x0 DUP4 DUP4 ADD MSTORE POP POP POP JUMP JUMPDEST PUSH1 0x0 PUSH2 0x1DFC DUP4 DUP6 PUSH2 0x15BE JUMP JUMPDEST SWAP4 POP PUSH2 0x1E09 DUP4 DUP6 DUP5 PUSH2 0x1DE1 JUMP JUMPDEST PUSH2 0x1E12 DUP4 PUSH2 0x15F9 JUMP JUMPDEST DUP5 ADD SWAP1 POP SWAP4 SWAP3 POP POP POP JUMP JUMPDEST PUSH1 0x0 PUSH1 0x60 DUP3 ADD SWAP1 POP DUP2 DUP2 SUB PUSH1 0x0 DUP4 ADD MSTORE PUSH2 0x1E38 DUP2 DUP7 DUP9 PUSH2 0x1DF0 JUMP JUMPDEST SWAP1 POP PUSH2 0x1E47 PUSH1 0x20 DUP4 ADD DUP6 PUSH2 0x1496 JUMP JUMPDEST PUSH2 0x1E54 PUSH1 0x40 DUP4 ADD DUP5 PUSH2 0x1643 JUMP JUMPDEST SWAP6 SWAP5 POP POP POP POP POP JUMP JUMPDEST PUSH32 0x6974656D206E6F7420666F756E64000000000000000000000000000000000000 PUSH1 0x0 DUP3 ADD MSTORE POP JUMP JUMPDEST PUSH1 0x0 PUSH2 0x1E93 PUSH1 0xE DUP4 PUSH2 0x15BE JUMP JUMPDEST SWAP2 POP PUSH2 0x1E9E DUP3 PUSH2 0x1E5D JUMP JUMPDEST PUSH1 0x20 DUP3 ADD SWAP1 POP SWAP2 SWAP1 POP JUMP JUMPDEST PUSH1 0x0 PUSH1 0x20 DUP3 ADD SWAP1 POP DUP2 DUP2 SUB PUSH1 0x0 DUP4 ADD MSTORE PUSH2 0x1EC2 DUP2 PUSH2 0x1E86 JUMP JUMPDEST SWAP1 POP SWAP2 SWAP1 POP JUMP JUMPDEST PUSH1 0x0 DUP3 SWAP1 POP SWAP3 SWAP2 POP POP JUMP JUMPDEST PUSH2 0x1EDE DUP4 DUP4 PUSH2 0x1EC9 JUMP JUMPDEST PUSH8 0xFFFFFFFFFFFFFFFF DUP2 GT ISZERO PUSH2 0x1EF7 JUMPI PUSH2 0x1EF6 PUSH2 0x1B3E JUMP JUMPDEST JUMPDEST PUSH2 0x1F01 DUP3 SLOAD PUSH2 0x198A JUMP JUMPDEST PUSH2 0x1F0C DUP3 DUP3 DUP6 PUSH2 0x1C82 JUMP JUMPDEST PUSH1 0x0 PUSH1 0x1F DUP4 GT PUSH1 0x1 DUP2 EQ PUSH2 0x1F3B JUMPI PUSH1 0x0 DUP5 ISZERO PUSH2 0x1F29 JUMPI DUP3 DUP8 ADD CALLDATALOAD SWAP1 POP JUMPDEST PUSH2 0x1F33 DUP6 DUP3 PUSH2 0x1CF3 JUMP JUMPDEST DUP7 SSTORE POP PUSH2 0x1F9B JUMP JUMPDEST PUSH1 0x1F NOT DUP5 AND PUSH2 0x1F49 DUP7 PUSH2 0x1B6D JUMP JUMPDEST PUSH1 0x0 JUMPDEST DUP3 DUP2 LT ISZERO PUSH2 0x1F71 JUMPI DUP5 DUP10 ADD CALLDATALOAD DUP3 SSTORE PUSH1 0x1 DUP3 ADD SWAP2 POP PUSH1 0x20 DUP6 ADD SWAP5 POP PUSH1 0x20 DUP2 ADD SWAP1 POP PUSH2 0x1F4C JUMP JUMPDEST DUP7 DUP4 LT ISZERO PUSH2 0x1F8E JUMPI DUP5 DUP10 ADD CALLDATALOAD PUSH2 0x1F8A PUSH1 0x1F DUP10 AND DUP3 PUSH2 0x1CD5 JUMP JUMPDEST DUP4 SSTORE POP JUMPDEST PUSH1 0x1 PUSH1 0x2 DUP9 MUL ADD DUP9 SSTORE POP POP POP JUMPDEST POP POP POP POP POP POP POP JUMP JUMPDEST PUSH1 0x0 PUSH1 0x80 DUP3 ADD SWAP1 POP DUP2 DUP2 SUB PUSH1 0x0 DUP4 ADD MSTORE PUSH2 0x1FBF DUP2 DUP8 DUP10 PUSH2 0x1DF0 JUMP JUMPDEST SWAP1 POP PUSH2 0x1FCE PUSH1 0x20 DUP4 ADD DUP7 PUSH2 0x1496 JUMP JUMPDEST PUSH2 0x1FDB PUSH1 0x40 DUP4 ADD DUP6 PUSH2 0x1496 JUMP JUMPDEST PUSH2 0x1FE8 PUSH1 0x60 DUP4 ADD DUP5 PUSH2 0x1643 JUMP JUMPDEST SWAP7 SWAP6 POP POP POP POP POP POP JUMP JUMPDEST PUSH32 0x73616C6573207061757365640000000000000000000000000000000000000000 PUSH1 0x0 DUP3 ADD MSTORE POP JUMP JUMPDEST PUSH1 0x0 PUSH2 0x2028 PUSH1 0xC DUP4 PUSH2 0x15BE JUMP JUMPDEST SWAP2 POP PUSH2 0x2033 DUP3 PUSH2 0x1FF2 JUMP JUMPDEST PUSH1 0x20 DUP3 ADD SWAP1 POP SWAP2 SWAP1 POP JUMP JUMPDEST PUSH1 0x0 PUSH1 0x20 DUP3 ADD SWAP1 POP DUP2 DUP2 SUB PUSH1 0x0 DUP4 ADD MSTORE PUSH2 0x2057 DUP2 PUSH2 0x201B JUMP JUMPDEST SWAP1 POP SWAP2 SWAP1 POP JUMP JUMPDEST PUSH32 0x717479206D757374206265203E20300000000000000000000000000000000000 PUSH1 0x0 DUP3 ADD MSTORE POP JUMP JUMPDEST PUSH1 0x0 PUSH2 0x2094 PUSH1 0xF DUP4 PUSH2 0x15BE JUMP JUMPDEST SWAP2 POP PUSH2 0x209F DUP3 PUSH2 0x205E JUMP JUMPDEST PUSH1 0x20 DUP3 ADD SWAP1 POP SWAP2 SWAP1 POP JUMP JUMPDEST PUSH1 0x0 PUSH1 0x20 DUP3 ADD SWAP1 POP DUP2 DUP2 SUB PUSH1 0x0 DUP4 ADD MSTORE PUSH2 0x20C3 DUP2 PUSH2 0x2087 JUMP JUMPDEST SWAP1 POP SWAP2 SWAP1 POP JUMP JUMPDEST PUSH32 0x6974656D206E6F7420666F722073616C65000000000000000000000000000000 PUSH1 0x0 DUP3 ADD MSTORE POP JUMP JUMPDEST PUSH1 0x0 PUSH2 0x2100 PUSH1 0x11 DUP4 PUSH2 0x15BE JUMP JUMPDEST SWAP2 POP PUSH2 0x210B DUP3 PUSH2 0x20CA JUMP JUMPDEST PUSH1 0x20 DUP3 ADD SWAP1 POP SWAP2 SWAP1 POP JUMP JUMPDEST PUSH1 0x0 PUSH1 0x20 DUP3 ADD SWAP1 POP DUP2 DUP2 SUB PUSH1 0x0 DUP4 ADD MSTORE PUSH2 0x212F DUP2 PUSH2 0x20F3 JUMP JUMPDEST SWAP1 POP SWAP2 SWAP1 POP JUMP JUMPDEST PUSH1 0x0 PUSH2 0x2141 DUP3 PUSH2 0x148C JUMP JUMPDEST SWAP2 POP PUSH2 0x214C DUP4 PUSH2 0x148C JUMP JUMPDEST SWAP3 POP DUP3 DUP3 MUL PUSH2 0x215A DUP2 PUSH2 0x148C JUMP JUMPDEST SWAP2 POP DUP3 DUP3 DIV DUP5 EQ DUP4 ISZERO OR PUSH2 0x2171 JUMPI PUSH2 0x2170 PUSH2 0x19BB JUMP JUMPDEST JUMPDEST POP SWAP3 SWAP2 POP POP JUMP JUMPDEST PUSH1 0x0 DUP2 MLOAD SWAP1 POP PUSH2 0x2187 DUP2 PUSH2 0x155A JUMP JUMPDEST SWAP3 SWAP2 POP POP JUMP JUMPDEST PUSH1 0x0 PUSH1 0x20 DUP3 DUP5 SUB SLT ISZERO PUSH2 0x21A3 JUMPI PUSH2 0x21A2 PUSH2 0x141D JUMP JUMPDEST JUMPDEST PUSH1 0x0 PUSH2 0x21B1 DUP5 DUP3 DUP6 ADD PUSH2 0x2178 JUMP JUMPDEST SWAP2 POP POP SWAP3 SWAP2 POP POP JUMP JUMPDEST PUSH32 0x6E6F7420656E6F75676820555344540000000000000000000000000000000000 PUSH1 0x0 DUP3 ADD MSTORE POP JUMP JUMPDEST PUSH1 0x0 PUSH2 0x21F0 PUSH1 0xF DUP4 PUSH2 0x15BE JUMP JUMPDEST SWAP2 POP PUSH2 0x21FB DUP3 PUSH2 0x21BA JUMP JUMPDEST PUSH1 0x20 DUP3 ADD SWAP1 POP SWAP2 SWAP1 POP JUMP JUMPDEST PUSH1 0x0 PUSH1 0x20 DUP3 ADD SWAP1 POP DUP2 DUP2 SUB PUSH1 0x0 DUP4 ADD MSTORE PUSH2 0x221F DUP2 PUSH2 0x21E3 JUMP JUMPDEST SWAP1 POP SWAP2 SWAP1 POP JUMP JUMPDEST PUSH1 0x0 PUSH1 0x40 DUP3 ADD SWAP1 POP PUSH2 0x223B PUSH1 0x0 DUP4 ADD DUP6 PUSH2 0x16CB JUMP JUMPDEST PUSH2 0x2248 PUSH1 0x20 DUP4 ADD DUP5 PUSH2 0x16CB JUMP JUMPDEST SWAP4 SWAP3 POP POP POP JUMP JUMPDEST PUSH32 0x616C6C6F77616E636520746F6F206C6F77000000000000000000000000000000 PUSH1 0x0 DUP3 ADD MSTORE POP JUMP JUMPDEST PUSH1 0x0 PUSH2 0x2285 PUSH1 0x11 DUP4 PUSH2 0x15BE JUMP JUMPDEST SWAP2 POP PUSH2 0x2290 DUP3 PUSH2 0x224F JUMP JUMPDEST PUSH1 0x20 DUP3 ADD SWAP1 POP SWAP2 SWAP1 POP JUMP JUMPDEST PUSH1 0x0 PUSH1 0x20 DUP3 ADD SWAP1 POP DUP2 DUP2 SUB PUSH1 0x0 DUP4 ADD MSTORE PUSH2 0x22B4 DUP2 PUSH2 0x2278 JUMP JUMPDEST SWAP1 POP SWAP2 SWAP1 POP JUMP JUMPDEST PUSH1 0x0 PUSH1 0x60 DUP3 ADD SWAP1 POP PUSH2 0x22D0 PUSH1 0x0 DUP4 ADD DUP7 PUSH2 0x16CB JUMP JUMPDEST PUSH2 0x22DD PUSH1 0x20 DUP4 ADD DUP6 PUSH2 0x16CB JUMP JUMPDEST PUSH2 0x22EA PUSH1 0x40 DUP4 ADD DUP5 PUSH2 0x1496 JUMP JUMPDEST SWAP5 SWAP4 POP POP POP POP JUMP JUMPDEST PUSH1 0x0 DUP2 MLOAD SWAP1 POP PUSH2 0x2301 DUP2 PUSH2 0x1433 JUMP JUMPDEST SWAP3 SWAP2 POP POP JUMP JUMPDEST PUSH1 0x0 PUSH1 0x20 DUP3 DUP5 SUB SLT ISZERO PUSH2 0x231D JUMPI PUSH2 0x231C PUSH2 0x141D JUMP JUMPDEST JUMPDEST PUSH1 0x0 PUSH2 0x232B DUP5 DUP3 DUP6 ADD PUSH2 0x22F2 JUMP JUMPDEST SWAP2 POP POP SWAP3 SWAP2 POP POP JUMP JUMPDEST PUSH32 0x7472616E73666572206661696C65640000000000000000000000000000000000 PUSH1 0x0 DUP3 ADD MSTORE POP JUMP JUMPDEST PUSH1 0x0 PUSH2 0x236A PUSH1 0xF DUP4 PUSH2 0x15BE JUMP JUMPDEST SWAP2 POP PUSH2 0x2375 DUP3 PUSH2 0x2334 JUMP JUMPDEST PUSH1 0x20 DUP3 ADD SWAP1 POP SWAP2 SWAP1 POP JUMP JUMPDEST PUSH1 0x0 PUSH1 0x20 DUP3 ADD SWAP1 POP DUP2 DUP2 SUB PUSH1 0x0 DUP4 ADD MSTORE PUSH2 0x2399 DUP2 PUSH2 0x235D JUMP JUMPDEST SWAP1 POP SWAP2 SWAP1 POP JUMP JUMPDEST PUSH1 0x0 PUSH1 0x40 DUP3 ADD SWAP1 POP PUSH2 0x23B5 PUSH1 0x0 DUP4 ADD DUP6 PUSH2 0x1496 JUMP JUMPDEST PUSH2 0x23C2 PUSH1 0x20 DUP4 ADD DUP5 PUSH2 0x1496 JUMP JUMPDEST SWAP4 SWAP3 POP POP POP JUMP JUMPDEST PUSH32 0x7A65726F2073746F72652077616C6C6574000000000000000000000000000000 PUSH1 0x0 DUP3 ADD MSTORE POP JUMP JUMPDEST PUSH1 0x0 PUSH2 0x23FF PUSH1 0x11 DUP4 PUSH2 0x15BE JUMP JUMPDEST SWAP2 POP PUSH2 0x240A DUP3 PUSH2 0x23C9 JUMP JUMPDEST PUSH1 0x20 DUP3 ADD SWAP1 POP SWAP2 SWAP1 POP JUMP JUMPDEST PUSH1 0x0 PUSH1 0x20 DUP3 ADD SWAP1 POP DUP2 DUP2 SUB PUSH1 0x0 DUP4 ADD MSTORE PUSH2 0x242E DUP2 PUSH2 0x23F2 JUMP JUMPDEST SWAP1 POP SWAP2 SWAP1 POP JUMP JUMPDEST PUSH1 0x0 DUP2 SWAP1 POP SWAP3 SWAP2 POP POP JUMP JUMPDEST PUSH32 0x4974656D20230000000000000000000000000000000000000000000000000000 PUSH1 0x0 DUP3 ADD MSTORE POP JUMP JUMPDEST PUSH1 0x0 PUSH2 0x2476 PUSH1 0x6 DUP4 PUSH2 0x2435 JUMP JUMPDEST SWAP2 POP PUSH2 0x2481 DUP3 PUSH2 0x2440 JUMP JUMPDEST PUSH1 0x6 DUP3 ADD SWAP1 POP SWAP2 SWAP1 POP JUMP JUMPDEST PUSH1 0x0 PUSH2 0x2497 DUP3 PUSH2 0x15B3 JUMP JUMPDEST PUSH2 0x24A1 DUP2 DUP6 PUSH2 0x2435 JUMP JUMPDEST SWAP4 POP PUSH2 0x24B1 DUP2 DUP6 PUSH1 0x20 DUP7 ADD PUSH2 0x15CF JUMP JUMPDEST DUP1 DUP5 ADD SWAP2 POP POP SWAP3 SWAP2 POP POP JUMP JUMPDEST PUSH1 0x0 PUSH2 0x24C8 DUP3 PUSH2 0x2469 JUMP JUMPDEST SWAP2 POP PUSH2 0x24D4 DUP3 DUP5 PUSH2 0x248C JUMP JUMPDEST SWAP2 POP DUP2 SWAP1 POP SWAP3 SWAP2 POP POP JUMP JUMPDEST PUSH1 0x0 DUP2 SLOAD PUSH2 0x24EC DUP2 PUSH2 0x198A JUMP JUMPDEST PUSH2 0x24F6 DUP2 DUP7 PUSH2 0x15BE JUMP JUMPDEST SWAP5 POP PUSH1 0x1 DUP3 AND PUSH1 0x0 DUP2 EQ PUSH2 0x2511 JUMPI PUSH1 0x1 DUP2 EQ PUSH2 0x2527 JUMPI PUSH2 0x255A JUMP JUMPDEST PUSH1 0xFF NOT DUP4 AND DUP7 MSTORE DUP2 ISZERO ISZERO PUSH1 0x20 MUL DUP7 ADD SWAP4 POP PUSH2 0x255A JUMP JUMPDEST PUSH2 0x2530 DUP6 PUSH2 0x1B6D JUMP JUMPDEST PUSH1 0x0 JUMPDEST DUP4 DUP2 LT ISZERO PUSH2 0x2552 JUMPI DUP2 SLOAD DUP2 DUP10 ADD MSTORE PUSH1 0x1 DUP3 ADD SWAP2 POP PUSH1 0x20 DUP2 ADD SWAP1 POP PUSH2 0x2533 JUMP JUMPDEST DUP1 DUP9 ADD SWAP6 POP POP POP JUMPDEST POP POP POP SWAP3 SWAP2 POP POP JUMP JUMPDEST PUSH1 0x0 PUSH1 0x80 DUP3 ADD SWAP1 POP DUP2 DUP2 SUB PUSH1 0x0 DUP4 ADD MSTORE PUSH2 0x257D DUP2 DUP8 PUSH2 0x24DF JUMP JUMPDEST SWAP1 POP PUSH2 0x258C PUSH1 0x20 DUP4 ADD DUP7 PUSH2 0x1496 JUMP JUMPDEST PUSH2 0x2599 PUSH1 0x40 DUP4 ADD DUP6 PUSH2 0x1496 JUMP JUMPDEST PUSH2 0x25A6 PUSH1 0x60 DUP4 ADD DUP5 PUSH2 0x1643 JUMP JUMPDEST SWAP6 SWAP5 POP POP POP POP POP JUMP JUMPDEST PUSH32 0x4E487B7100000000000000000000000000000000000000000000000000000000 PUSH1 0x0 MSTORE PUSH1 0x12 PUSH1 0x4 MSTORE PUSH1 0x24 PUSH1 0x0 REVERT JUMPDEST PUSH1 0x0 PUSH2 0x25E9 DUP3 PUSH2 0x148C JUMP JUMPDEST SWAP2 POP PUSH2 0x25F4 DUP4 PUSH2 0x148C JUMP JUMPDEST SWAP3 POP DUP3 PUSH2 0x2604 JUMPI PUSH2 0x2603 PUSH2 0x25AF JUMP JUMPDEST JUMPDEST DUP3 DUP3 DIV SWAP1 POP SWAP3 SWAP2 POP POP JUMP JUMPDEST PUSH1 0x0 PUSH2 0x261A DUP3 PUSH2 0x148C JUMP JUMPDEST SWAP2 POP PUSH1 0x0 DUP3 SUB PUSH2 0x262D JUMPI PUSH2 0x262C PUSH2 0x19BB JUMP JUMPDEST JUMPDEST PUSH1 0x1 DUP3 SUB SWAP1 POP SWAP2 SWAP1 POP JUMP JUMPDEST PUSH1 0x0 PUSH2 0x2643 DUP3 PUSH2 0x148C JUMP JUMPDEST SWAP2 POP PUSH2 0x264E DUP4 PUSH2 0x148C JUMP JUMPDEST SWAP3 POP DUP3 PUSH2 0x265E JUMPI PUSH2 0x265D PUSH2 0x25AF JUMP JUMPDEST JUMPDEST DUP3 DUP3 MOD SWAP1 POP SWAP3 SWAP2 POP POP JUMP JUMPDEST PUSH1 0x0 PUSH2 0x2674 DUP3 PUSH2 0x148C JUMP JUMPDEST SWAP2 POP PUSH2 0x267F DUP4 PUSH2 0x148C JUMP JUMPDEST SWAP3 POP DUP3 DUP3 ADD SWAP1 POP DUP1 DUP3 GT ISZERO PUSH2 0x2697 JUMPI PUSH2 0x2696 PUSH2 0x19BB JUMP JUMPDEST JUMPDEST SWAP3 SWAP2 POP POP JUMP JUMPDEST PUSH32 0x4E487B7100000000000000000000000000000000000000000000000000000000 PUSH1 0x0 MSTORE PUSH1 0x32 PUSH1 0x4 MSTORE PUSH1 0x24 PUSH1 0x0 REVERT INVALID LOG2 PUSH5 0x6970667358 0x22 SLT KECCAK256 0x4C PUSH8 0xA3739EA50586F4CB DUP9 0xCA PUSH13 0xF1A4DAF6B542F19C0ABECCB737 ISZERO 0xB4 PUSH9 0xBBE37764736F6C6343 STOP ADDMOD EQ STOP CALLER "},"methodIdentifiers":{"buy(uint256,uint256)":"d6febde8","createItem(string,uint256,bool)":"a07b281e","getItem(uint256)":"3129e773","getMenuSize()":"5f9810b8","nextItemId()":"6a868974","nextOrderId()":"2a58b330","owner()":"8da5cb5b","paused()":"5c975abb","priceOf(uint256)":"b9186d7d","setPaused(bool)":"16c38b3c","setPrice(uint256,uint256)":"f7d97577","setStoreWallet(address)":"d7073225","storeWallet()":"c550424c","updateItem(uint256,string,uint256,bool)":"b72753d5","usdt()":"2f48ab7d"}}}}}