{
  "_format": "hh-sol-artifact-1",
  "contractName": "CoffeeShop",
  "sourceName": "contracts/CoffeeShop.sol",
  "abi": [
    {
      "inputs": [
        {
          "internalType": "address",
          "name": "_storeWallet",
          "type": "address"
        },
        {
          "internalType": "address",
          "name": "_usdt",
          "type": "address"
        }
      ],
      "stateMutability": "nonpayable",
      "type": "constructor"
    },
    {
      "anonymous": false,
      "inputs": [
        {
          "indexed": true,
          "internalType": "uint256",
          "name": "orderId",
          "type": "uint256"
        },
        {
          "indexed": true,
          "internalType": "address",
          "name": "customer",
          "type": "address"
        },
        {
          "indexed": true,
          "internalType": "uint256",
          "name": "itemId",
          "type": "uint256"
        },
        {
          "indexed": false,
          "internalType": "uint256",
          "name": "qty",
          "type": "uint256"
        },
        {
          "indexed": false,
          "internalType": "uint256",
          "name": "total",
          "type": "uint256"
        }
      ],
      "name": "OrderPlaced",
      "type": "event"
    },
    {
      "anonymous": false,
      "inputs": [
        {
          "indexed": true,
          "internalType": "uint256",
          "name": "itemId",
          "type": "uint256"
        },
        {
          "indexed": false,
          "internalType": "uint256",
          "name": "oldPrice",
          "type": "uint256"
        },
        {
          "indexed": false,
          "internalType": "uint256",
          "name": "newPrice",
          "type": "uint256"
        }
      ],
      "name": "PriceSet",
      "type": "event"
    },
    {
      "inputs": [
        {
          "internalType": "uint256",
          "name": "itemId",
          "type": "uint256"
        },
        {
          "internalType": "uint256",
          "name": "qty",
          "type": "uint256"
        }
      ],
      "name": "buy",
      "outputs": [],
      "stateMutability": "nonpayable",
      "type": "function"
    },
    {
      "inputs": [],
      "name": "nextOrderId",
      "outputs": [
        {
          "internalType": "uint256",
          "name": "",
          "type": "uint256"
        }
      ],
      "stateMutability": "view",
      "type": "function"
    },
    {
      "inputs": [],
      "name": "owner",
      "outputs": [
        {
          "internalType": "address",
          "name": "",
          "type": "address"
        }
      ],
      "stateMutability": "view",
      "type": "function"
    },
    {
      "inputs": [
        {
          "internalType": "uint256",
          "name": "",
          "type": "uint256"
        }
      ],
      "name": "priceOf",
      "outputs": [
        {
          "internalType": "uint256",
          "name": "",
          "type": "uint256"
        }
      ],
      "stateMutability": "view",
      "type": "function"
    },
    {
      "inputs": [
        {
          "internalType": "uint256",
          "name": "itemId",
          "type": "uint256"
        },
        {
          "internalType": "uint256",
          "name": "newPrice",
          "type": "uint256"
        }
      ],
      "name": "setPrice",
      "outputs": [],
      "stateMutability": "nonpayable",
      "type": "function"
    },
    {
      "inputs": [],
      "name": "storeWallet",
      "outputs": [
        {
          "internalType": "address",
          "name": "",
          "type": "address"
        }
      ],
      "stateMutability": "view",
      "type": "function"
    },
    {
      "inputs": [],
      "name": "usdt",
      "outputs": [
        {
          "internalType": "contract IERC20",
          "name": "",
          "type": "address"
        }
      ],
      "stateMutability": "view",
      "type": "function"
    }
  ],
  "bytecode": "0x608060405260016004553480156200001657600080fd5b506040516200118b3803806200118b83398181016040528101906200003c919062000254565b600073ffffffffffffffffffffffffffffffffffffffff168273ffffffffffffffffffffffffffffffffffffffff1603620000ae576040517f08c379a0000000000000000000000000000000000000000000000000000000008152600401620000a590620002fc565b60405180910390fd5b600073ffffffffffffffffffffffffffffffffffffffff168173ffffffffffffffffffffffffffffffffffffffff160362000120576040517f08c379a000000000000000000000000000000000000000000000000000000000815260040162000117906200036e565b60405180910390fd5b816000806101000a81548173ffffffffffffffffffffffffffffffffffffffff021916908373ffffffffffffffffffffffffffffffffffffffff16021790555033600160006101000a81548173ffffffffffffffffffffffffffffffffffffffff021916908373ffffffffffffffffffffffffffffffffffffffff16021790555080600260006101000a81548173ffffffffffffffffffffffffffffffffffffffff021916908373ffffffffffffffffffffffffffffffffffffffff160217905550505062000390565b600080fd5b600073ffffffffffffffffffffffffffffffffffffffff82169050919050565b60006200021c82620001ef565b9050919050565b6200022e816200020f565b81146200023a57600080fd5b50565b6000815190506200024e8162000223565b92915050565b600080604083850312156200026e576200026d620001ea565b5b60006200027e858286016200023d565b925050602062000291858286016200023d565b9150509250929050565b600082825260208201905092915050565b7f7a65726f2073746f72652077616c6c6574000000000000000000000000000000600082015250565b6000620002e46011836200029b565b9150620002f182620002ac565b602082019050919050565b600060208201905081810360008301526200031781620002d5565b9050919050565b7f7a65726f20746f6b656e00000000000000000000000000000000000000000000600082015250565b600062000356600a836200029b565b915062000363826200031e565b602082019050919050565b60006020820190508181036000830152620003898162000347565b9050919050565b610deb80620003a06000396000f3fe608060405234801561001057600080fd5b506004361061007d5760003560e01c8063b9186d7d1161005b578063b9186d7d146100dc578063c550424c1461010c578063d6febde81461012a578063f7d97577146101465761007d565b80632a58b330146100825780632f48ab7d146100a05780638da5cb5b146100be575b600080fd5b61008a610162565b6040516100979190610738565b60405180910390f35b6100a8610168565b6040516100b591906107d2565b60405180910390f35b6100c661018e565b6040516100d3919061080e565b60405180910390f35b6100f660048036038101906100f1919061085a565b6101b4565b6040516101039190610738565b60405180910390f35b6101146101cc565b604051610121919061080e565b60405180910390f35b610144600480360381019061013f9190610887565b6101f0565b005b610160600480360381019061015b9190610887565b6105dd565b005b60045481565b600260009054906101000a900473ffffffffffffffffffffffffffffffffffffffff1681565b600160009054906101000a900473ffffffffffffffffffffffffffffffffffffffff1681565b60036020528060005260406000206000915090505481565b60008054906101000a900473ffffffffffffffffffffffffffffffffffffffff1681565b60008111610233576040517f08c379a000000000000000000000000000000000000000000000000000000000815260040161022a90610924565b60405180910390fd5b6000600360008481526020019081526020016000205490506000811161028e576040517f08c379a000000000000000000000000000000000000000000000000000000000815260040161028590610990565b60405180910390fd5b6000828261029c91906109df565b9050600033905081600260009054906101000a900473ffffffffffffffffffffffffffffffffffffffff1673ffffffffffffffffffffffffffffffffffffffff166370a08231836040518263ffffffff1660e01b81526004016102ff919061080e565b602060405180830381865afa15801561031c573d6000803e3d6000fd5b505050506040513d601f19601f820116820180604052508101906103409190610a36565b1015610381576040517f08c379a000000000000000000000000000000000000000000000000000000000815260040161037890610aaf565b60405180910390fd5b81600260009054906101000a900473ffffffffffffffffffffffffffffffffffffffff1673ffffffffffffffffffffffffffffffffffffffff1663dd62ed3e83306040518363ffffffff1660e01b81526004016103df929190610acf565b602060405180830381865afa1580156103fc573d6000803e3d6000fd5b505050506040513d601f19601f820116820180604052508101906104209190610a36565b1015610461576040517f08c379a000000000000000000000000000000000000000000000000000000000815260040161045890610b44565b60405180910390fd5b6000600260009054906101000a900473ffffffffffffffffffffffffffffffffffffffff1673ffffffffffffffffffffffffffffffffffffffff166323b872dd8360008054906101000a900473ffffffffffffffffffffffffffffffffffffffff16866040518463ffffffff1660e01b81526004016104e293929190610b64565b6020604051808303816000875af1158015610501573d6000803e3d6000fd5b505050506040513d601f19601f820116820180604052508101906105259190610bd3565b905080610567576040517f08c379a000000000000000000000000000000000000000000000000000000000815260040161055e90610c4c565b60405180910390fd5b60006004600081548092919061057c90610c6c565b919050559050868373ffffffffffffffffffffffffffffffffffffffff16827f73d269ae9c85bfa23c18c756ce946fee3d4bd61627467b157781630dfd5795e089886040516105cc929190610cb4565b60405180910390a450505050505050565b600160009054906101000a900473ffffffffffffffffffffffffffffffffffffffff1673ffffffffffffffffffffffffffffffffffffffff163373ffffffffffffffffffffffffffffffffffffffff161461066d576040517f08c379a000000000000000000000000000000000000000000000000000000000815260040161066490610d29565b60405180910390fd5b600081116106b0576040517f08c379a00000000000000000000000000000000000000000000000000000000081526004016106a790610d95565b60405180910390fd5b600060036000848152602001908152602001600020549050816003600085815260200190815260200160002081905550827f22db173e2a8b7fa2d933790c01e64878b79e267d813bb3227a15b1c7ac404ffe8284604051610712929190610cb4565b60405180910390a2505050565b6000819050919050565b6107328161071f565b82525050565b600060208201905061074d6000830184610729565b92915050565b600073ffffffffffffffffffffffffffffffffffffffff82169050919050565b6000819050919050565b600061079861079361078e84610753565b610773565b610753565b9050919050565b60006107aa8261077d565b9050919050565b60006107bc8261079f565b9050919050565b6107cc816107b1565b82525050565b60006020820190506107e760008301846107c3565b92915050565b60006107f882610753565b9050919050565b610808816107ed565b82525050565b600060208201905061082360008301846107ff565b92915050565b600080fd5b6108378161071f565b811461084257600080fd5b50565b6000813590506108548161082e565b92915050565b6000602082840312156108705761086f610829565b5b600061087e84828501610845565b91505092915050565b6000806040838503121561089e5761089d610829565b5b60006108ac85828601610845565b92505060206108bd85828601610845565b9150509250929050565b600082825260208201905092915050565b7f717479206d757374206265203e20300000000000000000000000000000000000600082015250565b600061090e600f836108c7565b9150610919826108d8565b602082019050919050565b6000602082019050818103600083015261093d81610901565b9050919050565b7f6974656d206e6f7420666f722073616c65000000000000000000000000000000600082015250565b600061097a6011836108c7565b915061098582610944565b602082019050919050565b600060208201905081810360008301526109a98161096d565b9050919050565b7f4e487b7100000000000000000000000000000000000000000000000000000000600052601160045260246000fd5b60006109ea8261071f565b91506109f58361071f565b9250828202610a038161071f565b91508282048414831517610a1a57610a196109b0565b5b5092915050565b600081519050610a308161082e565b92915050565b600060208284031215610a4c57610a4b610829565b5b6000610a5a84828501610a21565b91505092915050565b7f6e6f7420656e6f75676820555344540000000000000000000000000000000000600082015250565b6000610a99600f836108c7565b9150610aa482610a63565b602082019050919050565b60006020820190508181036000830152610ac881610a8c565b9050919050565b6000604082019050610ae460008301856107ff565b610af160208301846107ff565b9392505050565b7f616c6c6f77616e636520746f6f206c6f77000000000000000000000000000000600082015250565b6000610b2e6011836108c7565b9150610b3982610af8565b602082019050919050565b60006020820190508181036000830152610b5d81610b21565b9050919050565b6000606082019050610b7960008301866107ff565b610b8660208301856107ff565b610b936040830184610729565b949350505050565b60008115159050919050565b610bb081610b9b565b8114610bbb57600080fd5b50565b600081519050610bcd81610ba7565b92915050565b600060208284031215610be957610be8610829565b5b6000610bf784828501610bbe565b91505092915050565b7f7472616e73666572206661696c65640000000000000000000000000000000000600082015250565b6000610c36600f836108c7565b9150610c4182610c00565b602082019050919050565b60006020820190508181036000830152610c6581610c29565b9050919050565b6000610c778261071f565b91507fffffffffffffffffffffffffffffffffffffffffffffffffffffffffffffffff8203610ca957610ca86109b0565b5b600182019050919050565b6000604082019050610cc96000830185610729565b610cd66020830184610729565b9392505050565b7f6e6f74206f776e65720000000000000000000000000000000000000000000000600082015250565b6000610d136009836108c7565b9150610d1e82610cdd565b602082019050919050565b60006020820190508181036000830152610d4281610d06565b9050919050565b7f7072696365206d757374206265203e2030000000000000000000000000000000600082015250565b6000610d7f6011836108c7565b9150610d8a82610d49565b602082019050919050565b60006020820190508181036000830152610dae81610d72565b905091905056fea26469706673582212202ef2128f4f0095abe064402c839453c1e0f3a4347dcf6342a492afd2a2477bdb64736f6c63430008140033",
  "linkReferences": {},
  "deployedLinkReferences": {}
}